:100000000C94340018950000189500001895000015
:10001000189500001895000018950000189500002C
:10002000189500001895000018950000189500001C
:100030000C942303189500001895000018950000F3
:1000400018950000189500001895000018950000FC
:1000500018950000189500001895000018950000EC
:1000600018950000189500008FEF8DBFC0EDE8E4F3
:100070004E2E88E08EBFD8E0F8E05F2EA89584B7BA
:10008000082E882784BF88E1992780936000909389
:100090006000EEEFF7E0A0E0B1E088278D933197A4
:1000A000E9F70E948308662474B7777F74BF8FE1F5
:1000B00097E080936000909360008091600088607A
:1000C00080936000A8958FEF8AB970E07BB9A895FE
:1000D00081E792E0A6E1B1E08D939C9388E1809363
:1000E000110186E080931201A2E1B1E08C918F5F53
:1000F0008C9380E080930F0180E08093100183E275
:1001000090E0A6E0B1E08D939C938AE196E0A8E0B0
:10011000B1E08D939C938CE29AE0ABE0B1E08D93DB
:100120009C9370910A01706870930A0180E080933B
:100130002B0184E080931B0100911B0141E0041B13
:10014000ACE1B1E00C9380E08093210181E08093E9
:10015000220182E08093230183E08093240184E0E4
:100160008093250185E08093260186E08093270116
:1001700087E080932801A89570E07093B90078E437
:100180007093B8000E94D109A8958EE4809339013C
:1001900081E080933A010E9404098FEF8AB987E8D1
:1001A00080937A0080E480937C00A89581E080931E
:1001B0001D0100911D01083418F011F00C94280164
:1001C000A89580E080933D0100913D01073018F033
:1001D00011F00C94200170917A00706870937A008D
:1001E00000917C00007F80913D0190E0890F0827FD
:1001F00000937C000E94440AABE3B1E08D939C9392
:1002000070917A007F7770937A0091E0AEE3B1E06D
:100210000E945B0AAEE3B1E00D911C91ABE3B1E04B
:100220004D915C9104271527AEE3B1E00D931C932B
:10023000ADE3B1E08C918F5F8C9310F40C94E400EB
:10024000ADE1B1E08C918F5F8C9310F40C94D900E8
:10025000AEE3B1E08D919C91A4E0B1E08D939C93CD
:10026000A895EEECF5E10E94E0080E94E8091EE482
:100270000E94FC0962FA16F00C9440010E94990752
:100280000E94F4090E94E90880E080932C0100910B
:100290002C01073018F011F00C94A001A895EEED98
:1002A000F5E10E94E008ECE2F1E0A0E3B8E00E9492
:1002B000A20A0E94D8080E94E80910EE0E94FC09D8
:1002C00010912C010E94FC090E94F4090E94E80987
:1002D00011EE0E94FC090E94190AA2E0B1E01C93F1
:1002E0000E94F4090E94E90840912C01009102014A
:1002F000041711F40C949801E0EFF5E10E94E00876
:10030000E2E0F1E0A0E3B8E00E94A20A0E94D8086F
:10031000EAEFF5E10E94E008ECE2F1E0A0E3B8E0EA
:100320000E94A20A0E94D808E1E0F0E00E94FB08C7
:10033000ACE2B1E08C918F5F8C9310F40C94470188
:1003400081E080932C0100912C01083018F011F00D
:100350000C94CE01A895ECEFF5E10E94E008ECE2E8
:10036000F1E0A0E3B8E00E94A20A0E94D8080E942F
:10037000E80910EE0E94FC0910912C010E94FC0972
:100380000E94F4090E94FF070E94E908ACE2B1E074
:100390008C918F5F8C9310F40C94A3010E94E90858
:1003A000EEE0F6E10E94E0080E94E708EEE1F6E1E7
:1003B0000E94E008E8E2F6E10E94E008E4E0F1E0F3
:1003C000A0E3B8E00E94920A0E94D808E8E2F6E1B1
:1003D0000E94E008A8950E94B306A5E5B1E0EAE214
:1003E000F6E10E943E0AAAE6B1E0ECE3F6E10E94E3
:1003F0003E0AAFE7B1E0EEE4F6E10E943E0AA4E96E
:10040000B1E0E0E6F6E10E943E0AA9EAB1E0E2E7E7
:10041000F6E10E943E0AAEEBB1E0E4E8F6E10E94AC
:100420003E0AA3EDB1E0E6E9F6E10E943E0AA8EE3D
:10043000B1E0E8EAF6E10E943E0AADEFB1E0EAEB96
:10044000F6E10E943E0AA2E1B2E0ECECF6E10E9485
:100450003E0AA7E2B2E0EEEDF6E10E943E0A0E94FB
:100460000C05A895A6E0B1E08D919C9190938B002E
:1004700080938A00ABE0B1E08D919C9190938900CC
:100480008093880080E0809380008DE080938100DD
:1004900070916F00726070936F0070916F00746064
:1004A00070936F0078948DE080938100A895A89553
:1004B000AAE0B1E08C9185FB16F00C9466020E94D4
:1004C000A30270910A017F7D70930A0100910001DF
:1004D000013118F011F00C946F020C94A1020E94EB
:1004E000E90880E080930001A1E0B1E08C918F5F8A
:1004F0008C93E0EFF6E10E94E008E1E0F1E0A0E398
:10050000B8E00E94A20A0E94D808009101010A35B1
:1005100018F011F00C948E020C94A1020E94E908CC
:10052000EAEFF6E10E94E0080E94E708ECE0F7E15C
:100530000E94E00880918100887F809381000E9462
:10054000FF060C94570280E08093210181E08093A4
:10055000220182E08093230183E08093240184E0E0
:100560008093250185E08093260186E08093270112
:1005700087E08093280100911B0141E0041BADE15D
:10058000B1E00C9340911D0101E0041718F011F047
:100590000C940D03ADE1B1E00C9111272227332714
:1005A0000A931A932A933A930E949008AEE1B1E01D
:1005B0000C93ADE1B1E0AD90BB24A1E2B1E0AA0D96
:1005C000BB1D8C9180932901AEE1B1E0AD90BB24BD
:1005D000A1E2B1E0AA0DBB1D8C9180932A0180910C
:1005E0002A01ADE1B1E0AD90BB24A1E2B1E0AA0DDA
:1005F000BB1D8C9380912901AEE1B1E0AD90BB248D
:10060000A1E2B1E0AA0DBB1D8C9380911D01815028
:1006100080931D0110F00C94C202409121010091C1
:100620001301041711F00C9417030C94BB02ACE1F6
:10063000B1E0AD90BB24A1E2B1E0AA0DBB1D8C914D
:100640008093130108950F921F922F923F924F9221
:100650005F927F92AF92BF920F931F932F933F931E
:100660004F935F936F937F938F939F93AF93BF93BA
:10067000CF93DF93EF93FF938FB78F934091110147
:1006800000910F01041710F00C94E70380E08093B1
:100690001001AFE0B1E08C918F5F8C93AAE0B1E0E4
:1006A0008C9187FB16F00C949203ABE2B1E0AD9015
:1006B000BB24A1E2B1E0AA0DBB1D8C9180930D017A
:1006C00080910D01ABE2B0E00E947E0A0E94740AA4
:1006D0009C91982B9C9300910D0144E0040FAEE097
:1006E000B1E00C9380910E01ABE2B0E00E947E0A73
:1006F0000E94740A9C91982B9C93A9E1B1E00D9102
:100700001C91A8E0B1E04D915C91040F151F10936E
:100710008B0000938A0070910A017F7770930A0121
:100720000C94E503ABE2B1E0AD90BB24A1E2B1E0F3
:10073000AA0DBB1D8C9180930D0180910D01ABE240
:10074000B0E00E947E0A0E94740A8C9189238C93E7
:1007500000910D0144E0040FAEE0B1E00C938091F4
:100760000E01ABE2B0E00E947E0A0E94740A8C91F6
:1007700089238C930E94A305A9E1B1E08D919C91FE
:1007800090938B0080938A0070910A017068709337
:100790000A01ABE2B1E08C918F5F8C9300911B0159
:1007A00041E0041BACE1B1E00C9340911B010091CE
:1007B0002B01041711F00C94E50380E080932B01CA
:1007C00070910A01706270930A010C94FE034091CB
:1007D000120100911001041710F00C94F603A0E12F
:1007E000B1E08C918F5F8C930C94FE03A0E0B1E09C
:1007F0008C918F5F8C9380E080930F018F918FBFDE
:10080000FF91EF91DF91CF91BF91AF919F918F9128
:100810007F916F915F914F913F912F911F910F9118
:10082000BF90AF907F905F904F903F902F901F9020
:100830000F90189573E078B981E080932F018FE7CE
:1008400011E00E94F808ECE1F7E10E94E0088FEB6C
:1008500011E00E94F808EEE2F7E10E94E008AEE243
:10086000B1E0E8944C9106B1882700FD816001FD5C
:100870008260841711F4B6F310C08C934295840FF4
:10088000823049F0803139F0833229F0813319F018
:100890000E94BD0402C00E9473043A98AAE0B1E02D
:1008A0009C9194FF04C0329B10C09F7E9C93329910
:1008B0000CC089E19F9390E00E94C2099F913299F8
:1008C00004C090619C930E946A040C942F04FFFF63
:1008D000F894FFCF8FEB11E00E94F808E0E4F7E115
:1008E0000E94E008089500912F01013011F00C944E
:1008F0007D0480E080932F0108958FE711E00E942E
:10090000F80880913C02815080933C0200913C02A7
:10091000013010F00C948F0481E080933C02ACE332
:10092000B2E00D91112745E150E00E94340AA0E4A5
:10093000B1E0A00FB11F0E94DA088FEB1AE00E940D
:10094000F808EEE4F7E10E94E0088FEB11E00E9466
:10095000F808A0E3B8E0E6E5F7E10E943E0AECE320
:10096000F2E0A0E3B8E00E94D1080E94A20A0E942F
:10097000D80881E080932F01089500912F01013064
:1009800011F00C94C70480E080932F0108958FE745
:1009900011E00E94F808ACE3B2E08C918F5F8C9379
:1009A00000913C020B3018F011F00C94D9040C9417
:1009B000DC048BE080933C02ACE3B2E00D911127A4
:1009C00045E150E00E94340AA0E4B1E0A00FB11F5D
:1009D0000E94DA088FEB1AE00E94F808EEE4F7E1D3
:1009E0000E94E0088FEB11E00E94F808A0E3B8E055
:1009F000E6E5F7E10E943E0AECE3F2E0A0E3B8E0AE
:100A00000E94D1080E94A20A0E94D80881E0809327
:100A10002F010895F894FFCFA895E1E0F0E00E943F
:100A2000FB08A89581E0809303010E94E809459A9C
:100A3000449A10EE0E94FC0911E00E94FC090E94F9
:100A4000F4090E94B405A89582E0809303010E94F6
:100A5000E809459A449A10EE0E94FC0912E00E94AF
:100A6000FC090E94F4090E94B405A89583E08093D4
:100A700003010E94E809459A449A10EE0E94FC097D
:100A800014E00E94FC090E94F4090E94B405A89594
:100A900084E0809303010E94E809459A449A10EE8D
:100AA0000E94FC0918E00E94FC090E94F4090E94BF
:100AB000B405A89585E0809303010E94E809459A52
:100AC000449A10EE0E94FC0910E10E94FC090E9469
:100AD000F4090E94B405A89586E0809303010E9462
:100AE000E809459A449A10EE0E94FC0910E20E941F
:100AF000FC090E94F4090E94B405A89587E0809340
:100B000003010E94E809459A449A10EE0E94FC09EC
:100B100010E40E94FC090E94F4090E94B405A89503
:100B200088E0809303010E94E809459A449A10EEF8
:100B30000E94FC0910E80E94FC090E94F4090E942E
:100B4000B405A8950895A6E1B1E00D911C91222766
:100B500033270A931A932A933A930E949008A9E1A3
:100B6000B1E00D931C930895A8950E94E80914EB39
:100B70000E94FC0916E10E94FC0913E50E94FC0991
:100B80000E94F4090E94E80914EB0E94FC0917E195
:100B90000E94FC0919E80E94FC090E94F4090E94C5
:100BA000E80914EB0E94FC091AE10E94FC0916EB0B
:100BB0000E94FC090E94F4090E94E80914EB0E94BB
:100BC000FC091BE10E94FC0913E90E94FC090E9438
:100BD000F4090E94E80914EB0E94FC091CE10E9440
:100BE000FC0915EF0E94FC090E94F4090E94E80923
:100BF00014EB0E94FC091DE10E94FC0910E80E9410
:100C0000FC090E94F4090E94E80914EB0E94FC0907
:100C100011E00E94FC0917E00E94FC090E94F409FF
:100C20000E94E80914EB0E94FC091CE00E94FC09E8
:100C300011E00E94FC090E94F409A8950E94E809AD
:100C400014EB0E94FC091CE00E94FC090E94E809C8
:100C500015EB0E94FC090E94190AA2E0B1E01C9366
:100C60000E94F409A895A2E0B1E00C9100FB16F4F3
:100C70000C941E060E94E80914EB0E94FC0910E087
:100C80000E94FC090E94E80915EB0E94FC090E94E1
:100C9000190AA2E0B1E01C930E94F409A2E0B1E0BD
:100CA0000C9102FB16F40C945B06E8E2F6E10E945C
:100CB000E0080C9471060E94E908E2E6F7E10E9460
:100CC000E008E3E0F1E0A0E3B8E00E94A20A0E949D
:100CD000D808EAE6F7E10E94E008E4E7F7E10E94BD
:100CE000E0080E94E80914EB0E94FC091BE10E9445
:100CF000FC0913E10E94FC090E94F4090E94E80922
:100D000014EB0E94FC091CE10E94FC0915EF0E94F3
:100D1000FC090E94F4090E94E80914EB0E94FC09F6
:100D20001DE10E94FC0910E80E94FC090E94F409E0
:100D30000E94E80914EB0E94FC0913E00E94FC09E0
:100D400010E80E94FC090E94F4090E94E80914EBD3
:100D50000E94FC0911E00E94FC0913E00E94FC09BA
:100D60000E94F4090895A8953B9AE8E5F2E08FEF18
:100D700090E00197439A0E94B50943980E94B509F3
:100D8000482F492BB1F784E190E00E94C2093B9AB9
:100D9000E4EFF1E08FEF90E00197439A0E94B509EC
:100DA00043980E94B509482F492BB1F784E190E0A0
:100DB0000E94C209A8953B9AE0E9F1E089E091E040
:100DC0000197439A0E94B50943980E94B509482F9C
:100DD000492BB1F784E190E00E94C2093B9AECE212
:100DE000F1E088E191E00197439A0E94B5094398A8
:100DF0000E94B509482F492BB1F7A8950895A895E9
:100E00003B9AECE2F1E082E791E00197439A0E947D
:100E1000B50943980E94B509482F492BB1F784E1E1
:100E200090E00E94C2093B9AE0E9F1E08CE791E092
:100E30000197439A0E94B50943980E94B509482F2B
:100E4000492BB1F784E190E00E94C209A8953B9A32
:100E5000E4EFF1E086E891E00197439A0E94B5093A
:100E600043980E94B509482F492BB1F784E190E0DF
:100E70000E94C2093B9AE8E5F2E080E991E001971F
:100E8000439A0E94B50943980E94B509482F492BFF
:100E9000B1F784E190E00E94C209A8953B9AECE288
:100EA000F1E082E791E00197439A0E94B5094398E7
:100EB0000E94B509482F492BB1F784E190E00E94C8
:100EC000C2093B9AE0E9F1E08CE791E00197439A8F
:100ED0000E94B50943980E94B509482F492BB1F7E4
:100EE00084E190E00E94C209A8953B9AE4EFF1E00A
:100EF00086E891E00197439A0E94B50943980E94C1
:100F0000B509482F492BB1F784E190E00E94C2094E
:100F10003B9AE8E5F2E080E991E00197439A0E946C
:100F2000B50943980E94B509482F492BB1F7A895F8
:100F30000895A8953B9AECE2F1E084E893E00197EC
:100F4000439A0E94B50943980E94B509482F492B3E
:100F5000B1F7E1E0F0E00E94FB08A8953B9AECE2D3
:100F6000F1E084E893E00197439A0E94B509439821
:100F70000E94B509482F492BB1F7E1E0F0E00E944B
:100F8000FB08A8953B9AECE2F1E084E893E0019736
:100F9000439A0E94B50943980E94B509482F492BEE
:100FA000B1F7E1E0F0E00E94FB08A8953B9AECE283
:100FB000F1E084E893E00197439A0E94B5094398D1
:100FC0000E94B509482F492BB1F7E1E0F0E00E94FB
:100FD000FB08A8953B9AECE2F1E084E893E00197E6
:100FE000439A0E94B50943980E94B509482F492B9E
:100FF000B1F7E1E0F0E00E94FB08A8950895A895FC
:101000000E94E80914EB0E94FC0910E00E94FC0910
:101010000E94E80915EB0E94FC090E94190AA2E04F
:10102000B1E01C930E94F4090E94E908A2E0B1E03B
:101030008C91807E8C9395E0A2E0B1E00E94680ADA
:10104000A89500910201073011F00C942F08A0E33D
:10105000B1E0E8E8F7E10E943E0A0C9469080091CB
:101060000201063011F00C943D08A0E3B1E0E2E982
:10107000F7E10E943E0A0C946908009102010430D5
:1010800011F00C944B08A0E3B1E0ECE9F7E10E9409
:101090003E0A0C94690800910201033011F00C948F
:1010A0005908A0E3B1E0E4EAF7E10E943E0A0C949B
:1010B0006908ECEAF7E10E94E008E2E0F1E0A0E371
:1010C000B8E00E94A20A0E94D80884EF91E00E9432
:1010D000C209E2EBF7E10E94E008ECE2F1E0A0E3F4
:1010E000B8E00E94A20A0E94D808E8EBF7E10E944B
:1010F000E008A0E3B1E00E94DA0880E991E00E94F4
:10110000C209A89508958FEE809304018EEB809319
:1011100005018DEA809306018EED80930701089505
:10112000A4E0B1E00E94250A81E098E1772701FD63
:10113000782705FD782706FD782737FD782736952F
:1011400027951795079570FD30689A9579F70E9455
:101150002F0A79916991599149910C94650905D0AB
:101160000E94340A00FC0CD008950024E89457FF34
:1011700002C009D0689400F80BD010F8012408953B
:1011800002D009D00895509540954F5F5F4F089564
:10119000E89417FF0895009510950F5F1F4F68940E
:1011A00008958F938D918823E9F711978F91089572
:1011B000A0E3B8E08D91882311F04ED0FBCF0895C5
:1011C0000E94700A802D11F047D0FACF089580EC6C
:1011D00045C081E043D015D080E840C08FE7213082
:1011E00039F08FEB223021F08FE8233009F08FECBB
:1011F000810F0C942E0988EE93E0C4D03197D9F773
:10120000089583E09927BEC080E03ED082E390E05D
:101210000E94C20980E330D085E090E00E94C209BC
:1012200080E32AD0EF93FF93ECE8F1E00E94B2094B
:10123000FF91EF9180E320D080E21ED088E20ED0B3
:1012400088E00CD081E00AD083E090E00E94C209DF
:1012500086E004D08CE002C091E001C090E01091E3
:101260003A01103009F098609F938F9303D08F91CB
:101270009F918295807F892B5F9306D0846004D0F4
:101280008B7F02D05F9108958F938F930E94E8091E
:10129000109139010E94FC091F910E94FC090E94D3
:1012A000F409EF93FF93E4E2F0E00E94B209FF91AA
:1012B000EF918F91089500FC05D0089530D005D0AE
:1012C00001F8F9CF37D03FD00895842F952FA62F5E
:1012D000B72FE894452B462B472B11F468940895BB
:1012E000402F512F622F732F0027112722273327DA
:1012F000F0E2440F551F661F771F001F111F221FAA
:10130000331F081B190B2A0B3B0B416028F4080FF5
:10131000191F2A1F3B1F4E7FFA9559F70895002485
:10132000E89477FF02C006D0689400F809D010F85E
:101330000124089512D04F5F5F4F6F4F7F4F089584
:10134000E89437FF089500951095209530950F5F2C
:101350001F4F2F4F3F4F68940895409550956095CB
:10136000709508953197F1F70895AE2FBF2F11971B
:101370004A2F4B2BE1F70895689462F80895E8949A
:1013800062F80895EF93FF93EE27E82BE92B31F0F5
:10139000E0EAFFE03197F1F70197D1F7FF91EF9184
:1013A00008953C983D98449A459A089568944093CE
:1013B000BC008F939F9388279927019629F040912D
:1013C000BC0047FFFACFE8949F918F9162F808958F
:1013D00044EAECDF4091B900487F483019F04031D1
:1013E00009F0689462F8089544E94093BC00409184
:1013F000BC0044FDFCCF08951093BB0044E8D6DF49
:101400008F939F9388279927019671F04091B90097
:10141000487F483FC9F3E894483139F0483229F011
:10142000403419F0403509F068949F918F9162F82B
:10143000089544E801C044ECB9DF1091BB0040912D
:10144000B900487F483FD9F308950D911D912D9122
:101450003C910895019111912191308108953C931F
:101460002E931E930E9308950F92B801469F80010C
:10147000479F100D569F100D0F9008950E94700AFF
:101480000D920020D9F7089570917A0070647093DE
:101490007A0000907A0006FCFCCF70917A007064AC
:1014A00070937A0000907A0006FCFCCF809178005F
:1014B000909179000895903051F000240D911C9185
:1014C000000F111F001D9A95D9F71C930E930895D4
:1014D000903029F08C9186959A95E9F78C93089530
:1014E000C89531960020089591E0882321F08894D2
:1014F000991F8A95E9F7892F90950895883018F0FB
:1015000011968850FBCF0895000F111F221F331F23
:10151000089500951095209530950F5F1F4F2F4F20
:101520003F4F0895019110810FC00E942A0A0EC0FA
:101530000E942A0A10C00191108117FF05C03FEFD9
:101540002FEF04C0008111272227332737FF03C064
:10155000E0DF8DE28D93CF92DF92EF92AA24BB243D
:10156000CC24DD24EE2440E2EAE0FF2755E093E3BB
:101570008081890F87FD9F7083FD907F891B8193F8
:101580005A95A9F7C1DFAA1CBB1CCC1CDD1CEE1CA4
:101590004A9551F7E894EFE0FF2782910BD0EB30AA
:1015A000E0F71EF068948A2D09D04D93EF90DF90FC
:1015B000CF900895982F829501D0892F8F70805DEC
:1015C00026F0803309F4089568948D930895546546
:1015D0007374696E6720504346383537340054655C
:1015E0007374696E672054434139353438410000C3
:1015F0004572726F7220312E00002E005465737494
:10160000696E6720445256323630354C00004672BF
:101610006565646F6D5761766550442000005665BE
:1016200072312E392E3220002A00466972737420DE
:101630004D656E75204F7074202000005365636FF8
:101640006E64204D656E75204F70742000005468E4
:10165000697264204D656E75204F70742020000003
:10166000466F75727468204D656E75204F707420DA
:1016700000004669667468204D656E75204F707471
:10168000202000005369787468204D656E75204FE6
:10169000707420200000536576656E7468204D6577
:1016A0006E75204F70740000456967687468204D3E
:1016B000656E75204F70742000004E696E7468204E
:1016C0004D656E75204F70742020000054656E7457
:1016D00068204D656E75204F707420200000456CA9
:1016E0006576656E7468204D656E75204F700000DC
:1016F0004D696E757465733A20002054726561748B
:101700006D656E7420446F6E652020002020576147
:101710006974203220686F75727300005061726BBB
:10172000696E736F6E27732054657374000056657D
:10173000722E20302E313120202020202020000049
:10174000427574746F6E2050757368656400202054
:101750002020202020004D656E7543686F69636509
:10176000200046696E6765722000204661696C65DD
:1017700064210000506C6561736520436865636B8C
:1017800020576972696E6700445256323630354CC4
:101790000000445256323630344C00004452563227
:1017A0003630340044525632363035004572726F4E
:0A17B00072004368697020002000F9
:00000001FF
