:100000000C94340018950000189500001895000015
:10001000189500001895000018950000189500002C
:10002000189500000C9478011895000018950000B0
:100030000C948E1618950000189500001895000075
:1000400018950000189500001895000018950000FC
:1000500018950000189500001895000018950000EC
:1000600018950000189500008FEF8DBFC8E8E4E7F1
:100070004E2E88E08EBFD8E0F7E05F2EA89584B7BB
:10008000082E882784BF88E1992780936000909389
:100090006000EEEFF7E0A0E0B1E088278D933197A4
:1000A000E9F70E94A51E66248FEF8AB970E07BB93C
:1000B00081E0809349018CE291E0A4E7B1E08D9367
:1000C0009C9388E18093350186E080933601A6E316
:1000D000B1E08C918F5F8C9380E08093330180E05E
:1000E0008093340183E290E0AAE2B1E08D939C9387
:1000F0008AE196E0ACE2B1E08D939C938CE29AE0C9
:10010000AFE2B1E08D939C9370912E017068709373
:100110002E0184E080933A0100913A0141E0040FFE
:10012000ACE3B1E00C938FEF8AB980E080933F019C
:1001300081E08093400182E08093410183E08093DD
:10014000420184E08093430185E08093440186E08E
:100150008093450187E080934601409A419A429AF4
:1001600084E08093B10080E08093B00070917000D3
:1001700071607093700076E07093B2000C948B0104
:1001800081E0A881B981AD90BB24AEE8B1E0AA0DB1
:10019000BB1D8C9380E090E0A881B981AD90BB2419
:1001A000A9E7B1E0AA0CBB1CAA0DBB1D8D939C93C3
:1001B0000895AEE2B1E08C9182FB16F00C944F01F1
:1001C00070912E017B7F70932E01A1E9B1E00E9416
:1001D0008A1E81E080938E0100918E01023018F01A
:1001E00011F00C944F01AEE8B1E0AD90BB24AEE845
:1001F000B1E0AA0DBB1D0C91013011F00C940C0163
:10020000AEE8B1E0AD90BB24A9E7B1E0AA0CBB1CFD
:10021000AA0DBB1D0E94971EAEE8B1E0AD90BB24B5
:10022000ADE7B1E0AA0CBB1CAA0DBB1D4D915C91C2
:10023000AEE8B1E0AD90BB24A9E7B1E0AA0CBB1CCD
:10024000AA0DBB1D0D911C910417150711F00C94FC
:100250004701ADE8B1E08C918F5F8C9380918E0166
:10026000ADE8B1E0AD90BB24A2E8B1E0AA0DBB1DA2
:100270008C9380E090E0AEE8B1E0AD90BB24A9E7BC
:10028000B1E0AA0CBB1CAA0DBB1D8D939C93AEE8DC
:10029000B1E08C918F5F8C9310F40C94EC00409142
:1002A0008D0100E0041710F00C947301ADE8B1E08B
:1002B000AD90BB24A2E8B1E0AA0DBB1D8C91A88132
:1002C000B9818C9380E0ADE8B1E0AD90BB24A2E8A9
:1002D000B1E0AA0DBB1D8C9380918D01815080935C
:1002E0008D010C94770180E0A881B9818C930895E9
:1002F0007F937FB77F938F939F9376E07093B20045
:1003000070912E01746070932E019F918F917F9157
:100310007FBF7F91189570E07093B90078E4709377
:10032000B8000E940621A8958EE48093950181E093
:10033000809396010E94441F87E880937A0080E4AE
:1003400080937C00A89581E080933D0100913D0160
:10035000083418F011F00C94F501A89580E0809312
:10036000990100919901073018F011F00C94ED01FA
:1003700070917A00706870937A0000917C00007F21
:100380008091990190E0890F082700937C000E94DA
:100390008621A7E9B1E08D939C9370917A007F77D5
:1003A00070937A0091E0AAE9B1E00E949D21AAE948
:1003B000B1E00D911C91A7E9B1E04D915C9104274A
:1003C0001527AAE9B1E00D931C93A9E9B1E08C913E
:1003D0008F5F8C9310F40C94B101ADE3B1E08C917C
:1003E0008F5F8C9310F40C94A601AAE9B1E08D9173
:1003F0009C91A8E2B1E08D939C93AAE2B1E08D912B
:100400009C9190938B0080938A00AFE2B1E08D9134
:100410009C91909389008093880080E08093800075
:100420008DE08093810070916F00726070936F0017
:1004300070916F00746070936F0078948091810068
:10044000887F80938100A89574B7777F74BF8FE110
:1004500097E08093600090936000A8950C9412033D
:10046000040016020204010103030202020704034E
:10047000070605010408040609020905040302032E
:10048000030D08030A0C0902030B080A03030C09F5
:100490000B04030D0A0C0502090B080702040715DB
:1004A0000E030E140F06030F0E100703100F110892
:1004B0000311101209031211130A031312140B0271
:1004C00009130E0D04050D160401061501005374E1
:1004D00061727420546865726170790053746F7032
:1004E000205468657261707900446576696365209F
:1004F00053657474696E67730054686572617079CE
:10050000205365746E6700416476616E63656400B4
:1005100041626F7574007F2045786974004175747D
:100520006F7374617274004C6F616420446566611E
:10053000756C7473007F204261636B005365737345
:10054000696F6E4D696E7574657300496E74656E82
:1005500073697479004A69747465720048616E64E5
:10056000204D6972726F7200447269766520566F11
:100570006C74616765004C52412046726571756507
:100580006E63790045524D2F4C5241205374617473
:10059000757300536574204C5241004F4C2F434CEF
:1005A0002053746174757300536574204F70656EC9
:1005B000204C6F6F70001101010112010105965A64
:1005C0001202020080641301020000007102710235
:1005D000110201011701CDCCCC3D0000000000004C
:1005E000A0400000C03F12030150FFFA09010011B2
:1005F00003010109020011040101FE414243444587
:10060000464748494A4B4C4D4E4F50515253545512
:10061000565758595A2030313233343536373839F5
:10062000007FDBFE0E9416030C942704E8E4F6E04A
:1006300080E40E946E1F58E0C895802D0E946C1FB8
:1006400031965A95C9F704C0202020151520202086
:10065000ECE6F6E088E40E946E1F58E0C895802D15
:100660000E946C1F31965A95C9F704C018101015D6
:1006700015101018E0E9F6E080E50E946E1F58E0C2
:10068000C895802D0E946C1F31965A95C9F704C0F9
:100690001C08081D1D08081CE4EBF6E088E50E9414
:1006A0006E1F58E0C895802D0E946C1F31965A9598
:1006B000C9F704C00E0404151504040EE8EDF6E0B5
:1006C00080E60E946E1F58E0C895802D0E946C1F26
:1006D00031965A95C9F704C007020217170202079C
:1006E000ECEFF6E088E60E946E1F58E0C895802D7A
:1006F0000E946C1F31965A95C9F704C00301011579
:10070000150101030E94291F089582E00E947021B3
:1007100081E00E94702181E00E947021AE81BF8142
:100720000D91112745E050E00E947621AC81BD81FA
:100730000D931C93AC81BD810D911C91A885B98549
:100740004D9155270E947621AC81BD810D931C935C
:10075000A885B9850C91043611F00C94B303AC81D3
:10076000BD810E949E1EAC81BD810D911C9144E60D
:1007700050E00E94F71EAC81BD814D935C93AC812B
:10078000BD810C9145E00E94E022AA81BB818C933F
:10079000AA81BB818C918F5F8C93AC81BD810D91BF
:1007A0001C9145E050E00E94F71EAC81BD814D9345
:1007B0005C9381E0A881B9818C93AC81BD814D911E
:1007C0005C91A881B9810D9111270417150718F0C4
:1007D00011F00C94F60380E00E946C1FA881B9818F
:1007E0008C918F5F8C9310F40C94DD03AA81BB81F4
:1007F0008C910E946C1FAC81BD810D911C910E5F8C
:100800001F4FAC81BD810D931C93AC81BD818C9138
:10081000A881B9818C93AE81BF814C91A881B981A7
:100820000C91041718F011F00C94210480E00E9440
:100830006C1FA881B9818C918F5F8C9310F40C94FC
:100840000B0484E0481A80E0580A269608950C9418
:10085000F31184E00E94702184E00E947021AEE2D6
:10086000B1E08C9181FB81E00EF080E08F93AEE2ED
:10087000B1E08C9180FB81E00EF080E09F918923B4
:10088000882311F40C94E2060E94291F8FE711E0DF
:100890000E94381FEEECF4E0ADE9B1E0AD90BB246E
:1008A000A2ECB1E0AA0DBB1D8C9199270E94C52135
:1008B000AEE9B1E00E9480218CE30E946C1FACE5A0
:1008C000B7E0BA93AA93AEE9B1E0BA93AA938EE0E7
:1008D000D2018C9381E00E9470210E94150D269612
:1008E00081E00E946C210E94181F8FE710E10E9496
:1008F000381F8EE30E946C1FADE9B1E0AD90BB24C0
:10090000ACEAB1E0AA0DBB1D0C91033011F00C94C0
:10091000DD0680E0D2018C9381E00E9470210E946C
:10092000540D229681E00E946C21A8E7B2E0AD90C0
:10093000BB24A6E4B2E0AA0DBB1D4C9101E0041754
:1009400081E008F080E08F93A8E7B2E0AD90BB248F
:10095000A6E4B2E0AA0DBB1D0C91093081E008F0BD
:1009600080E09F918923882311F40C940906A8E75D
:10097000B2E0AD90BB24A1E5B2E0AA0DBB1D8C9105
:1009800080939C01A8E7B2E0AD90BB24A6E4B2E05E
:10099000AA0DBB1D0C91023011F00C942705ECE957
:1009A000F1E0A190BB24ECE5F2E0EA0DFB1DD08064
:1009B000EE24FF2400270E94CA230E9454232F9371
:1009C0003F934F935F93E9E7F2E0D080EE24FF245A
:1009D00000270E94CA235F914F913F912F910E945F
:1009E0009A24EDE0F0E0AA81BB810E949D22ECE90F
:1009F000F1E0A190BB24ECE5F2E0EA0DFB1DD08014
:100A0000EE24FF2400270E94CA230E9454232F9320
:100A10003F934F935F93ECE9F1E0A190BB24EFE5A6
:100A2000F2E0EA0DFB1DD080EE24FF2400270E9497
:100A3000CA235F914F913F912F910E949A24EDE03C
:100A4000F0E0A881B9810E949D220C94CB0503306F
:100A500011F00C948905ECE9F1E0A190BB24E4E6E7
:100A6000F2E0AA0CBB1CEA0DFB1DD190E080FF2434
:100A700000270E94B2230E9454232F933F934F9349
:100A80005F93E9E7F2E0D190E080FF2400270E9425
:100A9000B2235F914F913F912F910E949A24EDE0F4
:100AA000F0E0AA81BB810E949D22ECE9F1E0A190D7
:100AB000BB24E4E6F2E0AA0CBB1CEA0DFB1DD190BE
:100AC000E080FF2400270E94B2230E9454232F932A
:100AD0003F934F935F93ECE9F1E0A190BB24E6E6EE
:100AE000F2E0AA0CBB1CEA0DFB1DD190E080FF24B4
:100AF00000270E94B2235F914F913F912F910E9456
:100B00009A24EDE0F0E0A881B9810E949D220C9426
:100B1000CB05073011F00C94CB05ECE9F1E0A19086
:100B2000BB24E8E6F2E0AA0CBB1CAA0CBB1CEA0D35
:100B3000FB1D0E944A23E9E7F2E00E9445230E9440
:100B40009A24EDE0F0E0AA81BB810E949D22ECE9AD
:100B5000F1E0A190BB24E8E6F2E0AA0CBB1CAA0CD1
:100B6000BB1CEA0DFB1D0E944A23ECE9F1E0A190B9
:100B7000BB24ECE6F2E0AA0CBB1CAA0CBB1CEA0DE1
:100B8000FB1D0E9445230E949A24EDE0F0E0A8811D
:100B9000B9810E949D22E6E0FBE40E940425EA81DF
:100BA000FB810E9445230E945B24EDE0F0E0AA81D6
:100BB000BB810E949D22E881F9810E944A23EA813B
:100BC000FB810E9445230E940224EDE0F0E0AA810F
:100BD000BB810E949D22EA81FB810E945A23ACE9DD
:100BE000B1E0DC928FEB1AE00E94381F80919C01EB
:100BF000D2018C9381E00E94702187E0D2018C9316
:100C000081E00E9470210E948503249682E00E9468
:100C10006C21AFE8B2E08C9187FB16F00C941906BA
:100C20008FEB11E00E94381F8BE50E946C1F0C9423
:100C30001D068FEB12E00E94381FA8E7B2E0AD90CE
:100C4000BB24A6E4B2E0AA0DBB1D0C91013011F04B
:100C50000C943D06A9E7B2E00C9100FB16F40C944D
:100C60003706EEE3FBE40E94201F0C943B06E2E40F
:100C7000FBE40E94201F0C948106023011F00C94BA
:100C80004B06E9E7F2E0ACE5B7E00E9450220E9493
:100C9000181F0C948106033011F00C945906E9E7F3
:100CA000F2E0ACE5B7E00E9440220E94181F0C94CD
:100CB0008106073011F00C947906ACE5B7E0AF93EC
:100CC000BF93E9E7F2E00E9445230E94112011E062
:100CD00002E0BF91AF910E94EA21ECE5F7E0AEE9B6
:100CE000B1E00E949822AEE9B1E00E941A1F0C9474
:100CF0008106093011F00C948106A9E7B2E00E9448
:100D00001A1FAFE8B2E08C9187FB16F00C94DD0659
:100D1000A8E7B2E0AD90BB24A6E4B2E0AA0DBB1DEB
:100D20000C91093011F40C949B06E6E4FBE40E945C
:100D3000201F0C94D406A9E7B2E00E94F022ACE98F
:100D4000B1E08C9300919C010D3081E009F080E0CE
:100D50008F93009191020F3781E009F480E09F9119
:100D600089238F93009191020B3D81E009F480E08B
:100D70009F918923882311F40C94C506ACE9B1E056
:100D80008C918F5F8C930C94CA06ACE9B1E08C9186
:100D90008E5F8C938FEB10919C010E94381FA1E90C
:100DA000B2E08C910E946C1F8DE50E946C1F80E167
:100DB0000E946E1F80E10E946E1F70912E017E7F47
:100DC00070932E0188E0481A80E0580A249608950E
:100DD000AEE2B1E08C9181FB16F00C948A08709120
:100DE0002E01716070932E01AFE8B2E08C9187FB09
:100DF00016F40C942007ADE9B1E0AD90BB24AEEE43
:100E0000B1E0AA0DBB1D8C9180939D01ADE9B1E0CD
:100E1000AD90BB24ACEAB1E0AA0DBB1D0C91033030
:100E200011F00C941E07ADE9B1E0AD90BB24A4E035
:100E3000B2E0AA0DBB1D8C91809378020C948A08B5
:100E400080E0D2018C9381E00E9470210E94540DB9
:100E5000229681E00E946C21A8E7B2E0AD90BB240D
:100E6000A1E5B2E0AA0DBB1D8C9180939C01A8E77F
:100E7000B2E0AD90BB24A6E4B2E0AA0DBB1D0C917C
:100E8000013011F00C94490781E0809379020C94B1
:100E90007108023011F00C948907ACE9B1E0AD9013
:100EA000BB24AFE5B2E0AA0DBB1D0C9140917902C5
:100EB000041BA2E9B2E00C93ACE9B1E0AD90BB2415
:100EC000A2E6B2E0AA0DBB1D4C910091920204175C
:100ED00010F00C947807ACE9B1E0AD90BB24AFE51D
:100EE000B2E0AA0DBB1D8C91809379020C94870708
:100EF00000917902ACE9B1E0AD90BB24A2E6B2E08A
:100F0000AA0DBB1D4C91040FA9E7B2E00C930C9401
:100F10007108033011F00C94E207ACE9B1E0AD9038
:100F2000BB24A6E6B2E0AA0CBB1CAA0DBB1D0D910A
:100F30001C91A9E7B2E04D915C91041B150BA2E94D
:100F4000B2E00D931C93ACE9B1E0AD90BB24A8E6F0
:100F5000B2E0AA0CBB1CAA0DBB1D4D915C91A2E98D
:100F6000B2E00D911C910417150710F00C94CA07FC
:100F7000ACE9B1E0AD90BB24A6E6B2E0AA0CBB1C84
:100F8000AA0DBB1D8D919C91A9E7B2E08D939C9316
:100F90000C94E007A9E7B2E00D911C91ACE9B1E037
:100FA000AD90BB24A8E6B2E0AA0CBB1CAA0DBB1DE9
:100FB0004D915C91040F151FA9E7B2E00D931C93AE
:100FC0000C947108073011F00C944508E9E7F2E041
:100FD0000E944A23ECE9F1E0A190BB24ECE6F2E0A8
:100FE000AA0CBB1CAA0CBB1CEA0DFB1D0E944523CE
:100FF0000E949A24EDE0F0E0A2E9B2E00E949D2276
:10100000E2E9F2E00E944523ECE9F1E0A190BB2483
:10101000E0E7F2E0AA0CBB1CAA0CBB1CEA0DFB1D0E
:101020000E944A230E942C2310F00C942908ECE91A
:10103000F1E0A190BB24ECE6F2E0AA0CBB1CAA0CE8
:10104000BB1CEA0DFB1DA9E7B2E00E949D220C9497
:101050004308ECE9F1E0A190BB24E0E7F2E0AA0C40
:10106000BB1CAA0CBB1CEA0DFB1D0E944A23E9E72E
:10107000F2E00E9445230E94A924EDE0F0E0A9E7F8
:10108000B2E00E949D220C947108093011F00C947A
:101090007108A0E9B2E08C918F5F8C93EAEFF5E0E4
:1010A000A0E9B2E08C919927A1E9B2E00E94C221A7
:1010B00000919102003011F40C94490800919102C2
:1010C0000E3F11F00C94670881E080939002EAEFE4
:1010D000F5E0A0E9B2E08C919927A1E9B2E00E9485
:1010E000C221ADE9B1E0AD90BB24AAE1B2E0AA0D06
:1010F000BB1D0C9100FB16F40C948A0881E0D20110
:101100008C9381E00E9470210E94540D229681E010
:101110000E946C210895AEE2B1E08C9181FB16F043
:101120000C94440A70912E01716070932E01AFE807
:10113000B2E08C9187FB16F40C94C308ADE9B1E0E2
:10114000AD90BB24A8EDB1E0AA0DBB1D8C9180939E
:101150009D01ADE9B1E0AD90BB24ACEAB1E0AA0DD0
:10116000BB1D0C91033011F00C94C108ADE9B1E046
:10117000AD90BB24A4E0B2E0AA0DBB1D8C9180937E
:1011800078020C94440A80E0D2018C9381E00E94A2
:1011900070210E94540D229681E00E946C21A8E7E4
:1011A000B2E0AD90BB24A1E5B2E0AA0DBB1D8C91CD
:1011B00080939C01A8E7B2E0AD90BB24A6E4B2E026
:1011C000AA0DBB1D0C91013011F00C94EC0880E0CD
:1011D000809379020C942B0A023011F00C942C09A4
:1011E00000917902ACE9B1E0AD90BB24ACE5B2E08E
:1011F000AA0DBB1D4C91041BA2E9B2E00C93ACE913
:10120000B1E0AD90BB24A2E6B2E0AA0DBB1D4C91AB
:1012100000919202041710F00C941B09ACE9B1E0A4
:10122000AD90BB24ACE5B2E0AA0DBB1D8C918093C0
:1012300079020C942A0900917902ACE9B1E0AD90F1
:10124000BB24A2E6B2E0AA0DBB1D4C91041BA9E78A
:10125000B2E00C930C942B0A033011F00C94850926
:10126000A9E7B2E00D911C91ACE9B1E0AD90BB24CF
:10127000A4E6B2E0AA0CBB1CAA0DBB1D4D915C916B
:10128000041B150BA2E9B2E00D931C93ACE9B1E08D
:10129000AD90BB24A8E6B2E0AA0CBB1CAA0DBB1DF6
:1012A0004D915C91A2E9B2E00D911C9104171507D4
:1012B00010F00C946D09ACE9B1E0AD90BB24A4E64C
:1012C000B2E0AA0CBB1CAA0DBB1D8D919C91A9E795
:1012D000B2E08D939C930C948309A9E7B2E00D9141
:1012E0001C91ACE9B1E0AD90BB24A8E6B2E0AA0C39
:1012F000BB1CAA0DBB1D4D915C91041B150BA9E7EE
:10130000B2E00D931C930C942B0A073011F00C944F
:10131000E809ECE9F1E0A190BB24E8E6F2E0AA0CD0
:10132000BB1CAA0CBB1CEA0DFB1D0E944A23E9E76B
:10133000F2E00E9445230E949A24EDE0F0E0A2E949
:10134000B2E00E949D22E2E9F2E00E944523ECE92E
:10135000F1E0A190BB24E0E7F2E0AA0CBB1CAA0CD0
:10136000BB1CEA0DFB1D0E944A230E942C2310F097
:101370000C94CC09ECE9F1E0A190BB24E8E6F2E0A2
:10138000AA0CBB1CAA0CBB1CEA0DFB1DA9E7B2E012
:101390000E949D220C94E609ECE9F1E0A190BB24A7
:1013A000E0E7F2E0AA0CBB1CAA0CBB1CEA0DFB1D7B
:1013B0000E944A23E9E7F2E00E9445230E949A2412
:1013C000EDE0F0E0A9E7B2E00E949D220C942B0A28
:1013D000093011F00C942B0A809190028150809377
:1013E0009002EAEFF5E0A0E9B2E08C919927A1E93B
:1013F000B2E00E94C22100919102003011F40C94DD
:10140000EC09009191020E3F11F00C942B0AA0E917
:10141000B2E08C918F5F8C93EAEFF5E0A0E9B2E047
:101420008C919927A1E9B2E00E94C221009191021A
:101430000E3F11F00C94070A809190028150809326
:101440009002EAEFF5E0A0E9B2E08C919927A1E9DA
:10145000B2E00E94C221ADE9B1E0AD90BB24AAE1A7
:10146000B2E0AA0DBB1D0C9100FB16F40C94440ACB
:1014700081E0D2018C9381E00E9470210E94540D82
:10148000229681E00E946C21089582E00E947021E2
:1014900081E00E94702182E090E0AA81BB818D935F
:1014A0009C9370912E01716070932E0180E0AC814D
:1014B000BD818C93AEE2B1E08C9181FB16F40C946B
:1014C0006F0A81E0D2018C9381E00E9470210E941A
:1014D000DD0C229681E00E946C210C94D70CAFE8C1
:1014E000B2E08C9187FB16F40C94E80AADE9B1E008
:1014F000AD90BB24ACEAB1E0AA0DBB1D0C9103304A
:1015000011F00C949A0AADE9B1E0AD90BB24AAE1C8
:10151000B2E0AA0DBB1D0C9100FB16F40C94980AC6
:1015200070918F02706870938F028FE00E946E1F1F
:101530000C94E60A023011F00C94C30AADE9B1E054
:10154000AD90BB24A4E0B2E0AA0DBB1D8C918093AA
:101550009D01ADE9B1E0AD90BB24ACEAB1E0AA0DCC
:10156000BB1D0C91033011F00C94C10AADE9B1E040
:10157000AD90BB24A4E0B2E0AA0DBB1D8C9180937A
:1015800078020C94E60A013011F00C94CF0A81E045
:10159000AC81BD818C930E940C0D0C94E60A043042
:1015A00011F00C94E60A70912E017D7F70932E014C
:1015B000ADE9B1E0AD90BB24A4E0B2E0AA0DBB1D43
:1015C0008C91AC81BD818C930E94291F0C94D70C07
:1015D000A8E7B2E0AD90BB24A6E4B2E0AA0DBB1D23
:1015E0000C91093011F00C945C0B009191020F37B3
:1015F00011F00C941C0BA9E7B2E00E94F022082F16
:1016000041E0041BACE9B1E00C9340919C0100E087
:10161000041710F00C94160BE9E7F2E000919C011E
:10162000A9E7B2E00E94AB220C941A0BA9E7B2E042
:1016300088278C930C944E0B0B3D11F00C942A0BC5
:1016400070918F027F7770938F028CE00E946E1FE3
:101650000C944E0BA9E7B2E00E94F022ACE9B1E095
:101660008C9300919C010D3011F00C94440B8091EF
:101670009C01815080939C01E9E7F2E000919C017C
:10168000A9E7B2E00E94AB22A1E9B2E08C91A9E700
:10169000B2E00E94111F8D9388278C9381E0D201C4
:1016A0008C9381E00E9470210E94540D229681E06B
:1016B0000E946C210C94640B70918F027F77709361
:1016C0008F028CE00E946E1FADE9B1E0AD90BB24AB
:1016D000AAE1B2E0AA0DBB1D0C9101FB16F00C941F
:1016E000D70C81E080939C0100919C01063118F099
:1016F00011F00C943F0CACE9B1E0AD90BB24AAE131
:10170000B2E0AA0DBB1D0C9101FB16F00C94370C36
:10171000ACE9B1E0AD90BB24A4E0B2E0AA0DBB1DE2
:101720008C91A881B9818C9340917802A881B9816C
:101730000C91041711F00C949F0B0C943F0CA88192
:10174000B981AD90BB24A6E4B2E0AA0DBB1D0C91FB
:10175000013081E008F480E08F93A881B981AD90D9
:10176000BB24A6E4B2E0AA0DBB1D0C91023081E0BF
:1017700010F009F080E09F918923882311F40C94E4
:10178000CD0BAA81BB810D911C910F5F1F4FAA81C8
:10179000BB810D931C930C94370CA881B981AD903B
:1017A000BB24A6E4B2E0AA0DBB1D0C91033081E07E
:1017B00008F480E08F93A881B981AD90BB24A6E4A2
:1017C000B2E0AA0DBB1D0C91043081E010F009F0CD
:1017D00080E09F918923882311F40C94FB0BAA814C
:1017E000BB810D911C910E5F1F4FAA81BB810D9390
:1017F0001C930C94370CA881B981AD90BB24A6E44E
:10180000B2E0AA0DBB1D0C91053081E008F480E028
:101810008F93A881B981AD90BB24A6E4B2E0AA0D54
:10182000BB1D0C91073081E010F009F080E09F9122
:101830008923882311F40C94290CAA81BB810D9172
:101840001C910C5F1F4FAA81BB810D931C930C94BC
:10185000370C093011F00C94370CAA81BB810D9123
:101860001C91035F1F4FAA81BB810D931C93ACE9B0
:10187000B1E08C918F5F8C9310F40C94740BA8E7FB
:10188000B2E0AD90BB24A6E4B2E0AA0DBB1D0C9162
:10189000013081E008F480E08F93A8E7B2E0AD90DA
:1018A000BB24A6E4B2E0AA0DBB1D0C91023081E07E
:1018B00010F009F080E09F918923882311F40C94A3
:1018C0006D0CAA81BB81ED91FC91A9E7B2E091E09A
:1018D0007BE70E94BD220C94D70CA8E7B2E0AD9044
:1018E000BB24A6E4B2E0AA0DBB1D0C91033081E03D
:1018F00008F480E08F93A8E7B2E0AD90BB24A6E4A3
:10190000B2E0AA0DBB1D0C91043081E010F009F08B
:1019100080E09F918923882311F40C949B0CAA8169
:10192000BB81ED91FC91A9E7B2E092E07BE70E94D8
:10193000BD220C94D70CA8E7B2E0AD90BB24A6E47E
:10194000B2E0AA0DBB1D0C91053081E008F480E0E7
:101950008F93A8E7B2E0AD90BB24A6E4B2E0AA0D55
:10196000BB1D0C91073081E010F009F080E09F91E1
:101970008923882311F40C94C90CAA81BB81ED91B1
:10198000FC91A9E7B2E094E07BE70E94BD220C94B1
:10199000D70C093011F00C94D70CAA81BB81ED91C2
:1019A000FC91A9E7B2E09EE07BE70E94CB2283E0B6
:1019B000481A80E0580A24960895A881B9810C91AC
:1019C000003011F40C94E90CA881B9818C918093BA
:1019D0009D0170912E01726070932E0170912E0105
:1019E000716070932E01A881B981AD90BB24ACEADF
:1019F000B1E0AA0DBB1D0C91033011F00C940B0D3E
:101A0000A881B981AD90BB24A4E0B2E0AA0DBB1DB2
:101A10008C9180937802089570912E017D7F709350
:101A20002E0181E080939D010895AA81BB810E94CF
:101A3000F022ACE9B1E08C9340919C01A881B9817E
:101A40000C91041710F00C942A0DA881B9818C9187
:101A500080939C01A881B9810C9140919C01041B49
:101A6000ACE9B1E00C9391E0ACE9B1E00E94AA21AD
:101A700040919C0100E0041710F00C94470D8091F8
:101A80009C01AC81BD810E94A3220C944B0DAC81C2
:101A9000BD8188278C93EA81FB81AC81BD810E9446
:101AA000111F0E949822089582E00E94702182E016
:101AB0000E947021AC81BD810C91003011F00C941A
:101AC000790DA8E7B2E0AD90BB24AFE2B2E0AA0C7A
:101AD000BB1CAA0DBB1D8D919C91AA81BB818D93CE
:101AE0009C9309E712E0A881B9810D931C930C9493
:101AF0008F0D09E712E0AA81BB810D931C93A8E723
:101B0000B2E0AD90BB24AFE2B2E0AA0CBB1CAA0DC0
:101B1000BB1D8D919C91A881B9818D939C93A8E761
:101B2000B2E0AD90BB24A6E4B2E0AA0DBB1D0C91BF
:101B3000013081E008F480E08F93A8E7B2E0AD9037
:101B4000BB24A6E4B2E0AA0DBB1D0C91023081E0DB
:101B500010F009F080E09F918923882311F40C9400
:101B6000B60D81E080939C010C94140EA8E7B2E0BE
:101B7000AD90BB24A6E4B2E0AA0DBB1D0C910330CE
:101B800081E008F480E08F93A8E7B2E0AD90BB2439
:101B9000A6E4B2E0AA0DBB1D0C91043081E010F068
:101BA00009F080E09F918923882311F40C94DD0DC6
:101BB00082E080939C010C94140EA8E7B2E0AD90F3
:101BC000BB24A6E4B2E0AA0DBB1D0C91053081E058
:101BD00008F480E08F93A8E7B2E0AD90BB24A6E4C0
:101BE000B2E0AA0DBB1D0C91073081E010F009F0A6
:101BF00080E09F918923882311F40C94040E84E0E3
:101C000080939C010C94140E083011F00C940D0E6E
:101C100088E080939C010C94140E093011F00C9410
:101C2000140E8EE080939C0100919C01003011F411
:101C30000C94390EAA81BB81ED91FC918081AC811D
:101C4000BD818C93AC81BD818C91A881B981ED91CE
:101C5000FC918083AA81BB810E94971EA881B981D3
:101C60000E94971E80919C01815080939C010C944E
:101C7000140E84E0481A80E0580A2496089581E002
:101C80000E94702181E00E94702181E00E947021F9
:101C900081E00E94702182E00E94702181E00E9418
:101CA000702181E090E0AA81BB818D939C93AA81F1
:101CB000BB81ED91FC91A881B98191E00E94D9226C
:101CC000AA81BB810D911C910F5F1F4FAA81BB811F
:101CD0000D931C9380E0AA85BB858C93E6EBF5E021
:101CE0000E94841E81E080937802009178020B307C
:101CF00018F011F00C948211AA85BB858C918F5F2E
:101D00008C930E94871EAA85BB85AD90BB24A6E458
:101D1000B2E0AA0DBB1D0E94B2210C920E94841E4B
:101D2000AC81BD81BA93AA9380917802D2018C9341
:101D300081E00E9470210E949B11249681E00E9404
:101D40006C21AA85BB85AD90BB24A6E4B2E0AA0DA8
:101D5000BB1D0C91003110F40C94B90EAC81BD8107
:101D6000AD90BB24AAE1B2E0AA0DBB1D8C918260AC
:101D70008C93AA85BB85AD90BB24A6E4B2E0AA0DE6
:101D8000BB1D8C918F708C930E94871EA885B9858E
:101D90000E94B2210C920E94841EA885B9858C9164
:101DA000AA85BB85AD90BB24A1E5B2E0AA0DBB1D01
:101DB0008C93AA85BB85AD90BB24A6E4B2E0AA0DA6
:101DC000BB1D0C91013011F00C94440F0E94871E32
:101DD000ACE9B1E00E94B2210C920E94841E0091F5
:101DE0009C01003011F40C94370F0E94871EA9E764
:101DF000B2E00E94B2210C920E94841EAC81BD818F
:101E0000AD90BB24AAE1B2E0AA0DBB1D0C9101FB71
:101E100016F00C94310FA881B9810C910A3711F09A
:101E20000C941D0FAA81BB81ED91FC91A9E7B2E052
:101E300091E00E94D9220C94270FAA81BB81ED91D9
:101E4000FC91A9E7B2E091E07BE70E94BD22AA8164
:101E5000BB810D911C910F5F1F4FAA81BB810D9318
:101E60001C9381E0AE81BF818C930C94420FAC81B6
:101E7000BD81AD90BB24AAE1B2E0AA0DBB1D8C913F
:101E800081608C930C946311023011F00C94D10F8B
:101E90000E94871EA885B985AD90BB24A2E6B2E05A
:101EA000AA0DBB1D0E94B2210C920E94841E0E94AA
:101EB000871EA885B985AD90BB24ACE5B2E0AA0D1C
:101EC000BB1D0E94B2210C920E94841E0E94871E9C
:101ED000A885B985AD90BB24AFE5B2E0AA0DBB1DC6
:101EE0000E94B2210C920E94841EA885B985AD90F3
:101EF000BB24A2E6B2E0AA0DBB1D0C91003011F488
:101F00000C94C40F0E94871EA9E7B2E00E94B22180
:101F10000C920E94841EAC81BD81AD90BB24AAE1CD
:101F2000B2E0AA0DBB1D0C9101FB16F00C94BE0F84
:101F3000A881B9810C910A3711F00C94AA0FAA81DB
:101F4000BB81ED91FC91A9E7B2E091E00E94D9221A
:101F50000C94B40FAA81BB81ED91FC91A9E7B2E08A
:101F600091E07BE70E94BD22AA81BB810D911C916B
:101F70000F5F1F4FAA81BB810D931C9381E0AE813F
:101F8000BF818C930C94CF0FAC81BD81AD90BB24ED
:101F9000AAE1B2E0AA0DBB1D8C9181608C930C94D8
:101FA0006311033011F00C9465100E94871EA88500
:101FB000B985AD90BB24A8E6B2E0AA0CBB1CAA0D63
:101FC000BB1D0E94B8210E94841E0E94871EA88506
:101FD000B985AD90BB24A4E6B2E0AA0CBB1CAA0D47
:101FE000BB1D0E94B8210E94841E0E94871EA885E6
:101FF000B985AD90BB24A6E6B2E0AA0CBB1CAA0D25
:10200000BB1D0E94B8210E94841EA885B985AD9091
:10201000BB24A8E6B2E0AA0CBB1CAA0DBB1D0D9107
:102020001C91003050E0150711F40C9458100E94D8
:10203000871EA9E7B2E00E94B8210E94841EAC81ED
:10204000BD81AD90BB24AAE1B2E0AA0DBB1D0C91ED
:1020500001FB16F00C945210A881B9810C910A373B
:1020600011F00C943E10AA81BB81ED91FC91A9E77F
:10207000B2E092E00E94D9220C944810AA81BB8160
:10208000ED91FC91A9E7B2E092E07BE70E94BD22CE
:10209000AA81BB810D911C910E5F1F4FAA81BB814C
:1020A0000D931C9381E0AE81BF818C930C946310DF
:1020B000AC81BD81AD90BB24AAE1B2E0AA0DBB1DED
:1020C0008C9181608C930C946311073011F00C9407
:1020D00004110E94871EA885B985AD90BB24A0E796
:1020E000B2E0AA0CBB1CAA0CBB1CAA0DBB1D0E9413
:1020F000BA210E94841E0E94871EA885B985AD90D2
:10210000BB24A8E6B2E0AA0CBB1CAA0CBB1CAA0DFF
:10211000BB1D0E94BA210E94841E0E94871EA885B2
:10212000B985AD90BB24ACE6B2E0AA0CBB1CAA0CEE
:10213000BB1CAA0DBB1D0E94BA210E94841EE8850B
:10214000F985A190BB24E0E7F2E0AA0CBB1CAA0C25
:10215000BB1CEA0DFB1D0E944523EAE0FBE40E9444
:1021600004250E942C2311F40C94F7100E94871E62
:10217000A9E7B2E00E94BA210E94841EAC81BD8111
:10218000AD90BB24AAE1B2E0AA0DBB1D0C9101FBEE
:1021900016F00C94F110A881B9810C910A3711F056
:1021A0000C94DD10AA81BB81ED91FC91A9E7B2E00E
:1021B00094E00E94D9220C94E710AA81BB81ED9192
:1021C000FC91A9E7B2E094E07BE70E94BD22AA81DE
:1021D000BB810D911C910C5F1F4FAA81BB810D9398
:1021E0001C9381E0AE81BF818C930C940211AC8171
:1021F000BD81AD90BB24AAE1B2E0AA0DBB1D8C91BC
:1022000081608C930C946311093011F00C9463116C
:102210000E94871EACE9B1E00E94B2210C920E949C
:10222000841E00919C01003011F40C9458110E94FE
:10223000871EA9E7B2E00E9480210E94841EAC8123
:10224000BD81AD90BB24AAE1B2E0AA0DBB1D0C91EB
:1022500001FB16F00C945211A881B9810C910A3738
:1022600011F00C943E11AA81BB81ED91FC91A9E77C
:10227000B2E09EE00E94D9220C944811AA81BB8151
:10228000ED91FC91A9E7B2E09EE07BE70E94CB22B2
:10229000AA81BB810D911C91035F1F4FAA81BB8155
:1022A0000D931C9381E0AE81BF818C930C946311DC
:1022B000AC81BD81AD90BB24AAE1B2E0AA0DBB1DEB
:1022C0008C9181608C93AE81BF810C91013011F0B3
:1022D0000C947A1181E0D2018C9381E00E947021EC
:1022E0000E94540D229681E00E946C2180E0AE8114
:1022F000BF818C93A8E7B2E08C918F5F8C9310F430
:102300000C94750EA881B9810C910A3711F40C94C4
:1023100095118AE7A881B9818C93E1E0F0E0A8816A
:10232000B98191E07BE70E94BD2287E0481A80E0F6
:10233000580A2C96089581E00E94702181E0AC81BA
:10234000BD818C93AC81BD810C91063118F011F0E8
:102350000C94ED11AC81BD81AD90BB24ACEAB1E031
:10236000AA0DBB1D0C91033011F00C94E511AC814A
:10237000BD81AD90BB24A4E0B2E0AA0DBB1D8C9141
:10238000A881B9818C93A881B9814C91AA81BB8124
:102390000C91041711F00C94E511AA81BB81AD904A
:1023A000BB24A6E4B2E0AA0DBB1D4C91A881B98163
:1023B000AD90BB24A6E4B2E0AA0DBB1D0C9104179E
:1023C00011F00C94E5110C94ED11AC81BD818C9150
:1023D0008F5F8C9310F40C94A21181E0481A80E076
:1023E000580A22960895A6E2B0E08C9182FBAEE2F4
:1023F000B1E08C9183F98C9384E190E0AFE7B1E098
:102400008D939C9381E080938F0184EF91E0A1E80C
:10241000B1E08D939C9381E080939001E0E6F4E03D
:102420000E94841E81E080939C0100919C010631F2
:1024300018F011F00C946F120E94871EACE9B1E005
:10244000AD90BB24ACEAB1E0AA0DBB1D0E94B22145
:102450000C920E94841E0E94871EACE9B1E0AD90F0
:10246000BB24A2ECB1E0AA0DBB1D0E94B2210C92CC
:102470000E94841E0E94871EACE9B1E0AD90BB248F
:10248000A8EDB1E0AA0DBB1D0E94B2210C920E94E2
:10249000841E0E94871EACE9B1E0AD90BB24AEEE75
:1024A000B1E0AA0DBB1D0E94B2210C920E94841EB5
:1024B0000E94871EACE9B1E0AD90BB24A4E0B2E07D
:1024C000AA0DBB1D0E94B2210C920E94841EACE991
:1024D000B1E08C918F5F8C9310F40C94151281E015
:1024E00080939D01ADE9B1E0AD90BB24ACEAB1E0D1
:1024F000AA0DBB1D0C91033011F00C948A12ADE9AA
:10250000B1E0AD90BB24A4E0B2E0AA0DBB1D8C915C
:102510008093780200E011E0A1E3B2E00D931C93F8
:1025200001E011E0A3E3B2E00D931C9302E011E09F
:10253000A5E3B2E00D931C9303E011E0A7E3B2E042
:102540000D931C9305E011E0A9E3B2E00D931C93F9
:1025500001E111E0ABE3B2E00D931C930AE511E059
:10256000ADE3B2E00D931C9306E011E0AFE3B2E0FF
:102570000D931C9308E111E0A1E4B2E00D931C93CC
:102580000AE011E0A3E4B2E00D931C9309E111E02D
:10259000A5E4B2E00D931C930E943F0E81E080936E
:1025A0009002EAEFF5E0A0E9B2E08C919927A1E969
:1025B000B2E00E94C2218CE00E946E1FA0E2B1E056
:1025C000E8E4FBE40E9480210E941E1A0E948C1BFA
:1025D0000E94291FEEE4FBE40E94201F0E94271F97
:1025E000EEE5FBE40E94201FA0E2B1E00E941A1F6A
:1025F000E6E4FBE40E94201FE2E6FBE40E94201FC9
:10260000E8E2F1E0ACE5B7E00E9440220E94181F2A
:10261000E2E6FBE40E94201FA8950E94FF1787E8CE
:1026200080937A0080EC80937C0000917C00007F96
:10263000066000937C000E948621A7E5B1E08D939F
:102640009C93A7E5B1E00D911C910A3050E015076D
:1026500010F00C942E1381E08093000170917C00A7
:102660007F7770937C0000910001013011F00C9491
:10267000401370912E01706270932E010E94A91771
:102680008FEF8AB90E945B1E40916B010091180187
:10269000041781E009F480E08F9340916C01009170
:1026A0001901041781E009F480E09F91892B8F9331
:1026B00040916D0100910201041781E009F480E06E
:1026C0009F91892B8F93E1E1F1E00E944523EEE693
:1026D000F1E00E944A230E942C2381E009F480E06B
:1026E0009F91892B8F93A2E7B1E04D915C91AAE570
:1026F000B1E00D911C910417150781E009F480E009
:102700009F91892B882311F40C94A2130E948C1B97
:102710008091180180936B018091190180936C0165
:102720008091020180936D01E1E1F1E0AEE6B1E05C
:102730000E949D22AAE5B1E08D919C91A2E7B1E0B3
:102740008D939C93A895AEE2B1E08C9186FB16F038
:102750000C94B1130E940D1670912E017F7B709323
:102760002E01AEE2B1E08C9185FB16F00C94CB13F8
:1027700000911E01013118F011F00C94C1130C945A
:10278000CB1380E080931E01AFE1B1E08C918F5FAD
:102790008C930E946B150E942904A895A6E7B1E0CE
:1027A000E8944C9106B1882700FD816001FD8260AC
:1027B000841711F4B6F310C08C934295840F8230C5
:1027C00049F0803139F0833229F0813319F00E94C9
:1027D000D11502C00E94BD1581E090E00E94022048
:1027E000A0E1B0E0BA93AA930E94D90022960130EA
:1027F00011F00C944615A6E2B0E00C9102FB81E0CA
:102800000EF080E08F93AEE2B1E08C9183FB81E02B
:102810000EF480E09F918923882311F40C941F15F6
:10282000A8EAB2E0BA93AA930E94450A22960091C0
:10283000A802013011F00C9421140E946B150C9425
:102840001F15023011F00C945C140E94291FE4E65D
:10285000FBE40E94201F70912E01706270932E0184
:102860000E94A917A89580E991E00E940220A895EE
:1028700080E991E00E940220A89580E991E00E9401
:102880000220A89580E991E00E940220AAE9B2E026
:10289000E4E7FBE40E9480210E946B1581E0D201F5
:1028A0008C9381E00E9470210E94DD0C229681E0D1
:1028B0000E946C210C941F15033011F00C94AF147E
:1028C0000E94291FEEE7FBE40E94201F0E94271FA1
:1028D000E0E9FBE40E94201F0E94C71770912E01BF
:1028E0007F7D70932E01A89580E991E00E940220DF
:1028F000A89580E991E00E940220A89580E991E0E6
:102900000E940220A89580E991E00E940220A895EB
:1029100080E991E00E940220A89580E991E00E9460
:102920000220A89580E991E00E940220A89580E904
:1029300091E00E940220AAE9B2E0E4E7FBE40E94F1
:10294000802181E0D2018C9381E00E9470210E945D
:10295000DD0C229681E00E946C210C941F1504303E
:1029600011F00C94FF140E94291FE0EAFBE40E947E
:10297000201F0E94271FE0EBFBE40E94201FA0E223
:10298000B1E00E941A1FA89580E991E00E94022000
:10299000A89580E991E00E940220A89580E991E045
:1029A0000E940220A89580E991E00E940220A8954B
:1029B00080E991E00E940220A89580E991E00E94C0
:1029C0000220A89580E991E00E940220A89580E964
:1029D00091E00E940220AAE9B2E0E4E7FBE40E9451
:1029E000802181E0D2018C9381E00E9470210E94BD
:1029F000DD0C229681E00E946C210C941F15093099
:102A000011F00C941F150E94291FEAEBFBE40E94B1
:102A1000201FE2E0F0E00E943B1FAAE9B2E0E4E7F9
:102A2000FBE40E94802181E0D2018C9381E00E942E
:102A300070210E94DD0C229681E00E946C21A6E2AA
:102A4000B0E08C9182FBAEE2B1E08C9183F98C9383
:102A50004091770100E0041710F00C943615809136
:102A600077018150809377010E948B084091780113
:102A700000E0041710F00C94441580917801815007
:102A8000809378010E94E8060C946915023011F0D9
:102A90000C946915ADE9B1E0AD90BB24ACEAB1E0AE
:102AA000AA0DBB1D0C91033011F00C946915ADE912
:102AB000B1E0AD90BB24AAE1B2E0AA0DBB1D0C9120
:102AC00000FB16F00C94691570912E0171607093E3
:102AD0002E010C944213AEE2B1E08C9185FB16F00E
:102AE0000C9496150E94291F8CE00E946E1F8FE7A0
:102AF00011E00E94381FEAECFBE40E94201FEFE186
:102B0000F1E0ACE5B7E00E9450220E94181F40910E
:102B1000010100911F01041718F011F00C94921597
:102B20000C9494150E94C7170C94AF150E94291F8E
:102B30008CE00E946E1F8FE711E00E94381FE0EAD0
:102B4000FBE40E94201F8FEB11E00E94381FE0EB96
:102B5000FBE40E94201FA0E2B1E00E941A1F08952A
:102B60000E94291FE4EDFBE40E94201F0E94271F02
:102B7000E6EEFBE40E94201F0895009179010130E8
:102B800011F00C94C81580E0809379010C94D01555
:102B9000A7E7B1E08C918F5F8C9381E080937901FE
:102BA000089500917A01013011F00C94DC1580E059
:102BB00080937A010C94E415A8E7B1E08C918F5FC3
:102BC0008C9381E080937A01089580E080930001E6
:102BD00088E78093010184E68093020181E792E017
:102BE000A3E0B1E08D939C9381E080930501A6E082
:102BF000B1E0E6EFFBE40E948021A1E1B1E0EEE06C
:102C0000FBE40E94BA2189E28093150180E0809361
:102C1000160180E080931701089580E080933F01C2
:102C200081E08093400182E08093410183E08093C2
:102C3000420184E08093430185E08093440186E073
:102C40008093450187E08093460180913A0180930B
:102C50003D0140913D0102E0041718F011F00C9481
:102C60007916ADE3B1E00C911127222733270A939F
:102C70001A932A933A930E94B21EAEE3B1E00C93EA
:102C8000AEE3B1E08C918F5F8C93ADE3B1E0AD909A
:102C9000BB24AEE3B1E0AA0DBB1D8C91809347012C
:102CA000AEE3B1E0AD90BB24AEE3B1E0AA0DBB1D35
:102CB0008C918093480180914801ADE3B1E0AD90E3
:102CC000BB24AEE3B1E0AA0DBB1D8C9380914701FC
:102CD000AEE3B1E0AD90BB24AEE3B1E0AA0DBB1D05
:102CE0008C9380913D01815080933D0110F00C94B4
:102CF0002916A89540913F0100913701041711F45E
:102D00000C942516AAE3B1E0AD90BB24AEE3B1E08C
:102D1000AA0DBB1D8C918093370108950F921F92CD
:102D20002F923F924F925F927F92AF92BF920F93FA
:102D30001F932F933F934F935F936F937F938F9343
:102D40009F93AF93BF93CF93DF93EF93FF938FB78F
:102D50008F934091350100913301041710F00C94CA
:102D6000751780E080933401A3E3B1E08C918F5F0D
:102D70008C93AEE2B1E08C9187FB16F00C94271790
:102D8000A9E4B1E0AD90BB24AEE3B1E0AA0DBB1D58
:102D90008C918093310180913101ABE2B0E00E94CF
:102DA000D7210E94CD219C91982B9C9300913101B9
:102DB00044E0040FA2E3B1E00C930091050101305F
:102DC00011F00C94071700913101003011F00C94B0
:102DD000EE1687E0809332010C940717013011F052
:102DE0000C94F71686E0809332010C94071702309A
:102DF00011F00C94001785E0809332010C940717B2
:102E0000033011F00C94071784E080933201809115
:102E10003201ABE2B0E00E94D7210E94CD219C910B
:102E2000982B9C93A8E3B1E00D911C91ACE2B1E02A
:102E30004D915C91040F151F10938B0000938A0035
:102E400070912E017F7770932E010C947317A9E473
:102E5000B1E0AD90BB24AEE3B1E0AA0DBB1D8C91F7
:102E60008093310180913101ABE2B0E00E94D72123
:102E70000E94CD218C9189238C930091310144E0F3
:102E8000040FA2E3B1E00C9380913201ABE2B0E019
:102E90000E94D7210E94CD218C9189238C930E947E
:102EA000EA17A8E3B1E08D919C9190938B008093F9
:102EB0008A0070912E01706870932E01A9E4B1E030
:102EC0008C918F5F8C9340913C01009149010417D4
:102ED00011F00C94731781E08093490170912E01D9
:102EE000706470932E010C948C1740913601009100
:102EF0003401041710F00C948417A4E3B1E08C9112
:102F00008F5F8C930C948C17AEE1B1E08C918F5F46
:102F10008C9380E080933301A8958F918FBFFF91B0
:102F2000EF91DF91CF91BF91AF919F918F917F9161
:102F30006F915F914F913F912F911F910F91BF9092
:102F4000AF907F905F904F903F902F901F900F9089
:102F5000189580E08093330180E080933401709174
:102F60002E01706270932E0180E080931F0170919A
:102F70002E01706870932E0181E080934901A8951D
:102F80008DE0809381000E94FF17A89508957091AD
:102F90002E017F7D70932E0180E080931F01A89504
:102FA00080918100887F8093810070E07BB980E010
:102FB00080931E0180E080931F0181E0809349018E
:102FC00080E08093330180E0809334010E944B18AD
:102FD000A8950895A3E0B1E00D911C912227332715
:102FE0000A931A932A933A930E94B21EA8E3B1E07F
:102FF0000D931C93A8E3B1E00E94971E0895A89535
:103000003B9AE8E5F2E08FEF90E00197439A0E9447
:10301000F51F43980E94F51F482F492BB1F784E113
:1030200090E00E9402203B9AE4EFF1E08FEF90E005
:103030000197439A0E94F51F43980E94F51F482F5D
:10304000492BB1F784E190E00E940220A8953B9AB9
:10305000E0E9F1E089E091E00197439A0E94F51FD1
:1030600043980E94F51F482F492BB1F784E190E067
:103070000E9402203B9AECE2F1E088E191E00197A6
:10308000439A0E94F51F43980E94F51F482F492B31
:10309000B1F7A8950895A8953B9AECE2F1E082E794
:1030A00091E00197439A0E94F51F43980E94F51FF3
:1030B000482F492BB1F784E190E00E9402203B9A0F
:1030C000E0E9F1E08CE791E00197439A0E94F51F57
:1030D00043980E94F51F482F492BB1F784E190E0F7
:1030E0000E940220A8953B9AE4EFF1E086E891E087
:1030F0000197439A0E94F51F43980E94F51F482F9D
:10310000492BB1F784E190E00E9402203B9AE8E568
:10311000F2E080E991E00197439A0E94F51F4398FD
:103120000E94F51F482F492BB1F784E190E00E94DF
:103130000220A8953B9AECE2F1E082E791E001974A
:10314000439A0E94F51F43980E94F51F482F492B70
:10315000B1F784E190E00E9402203B9AE0E9F1E0BF
:103160008CE791E00197439A0E94F51F43980E94D3
:10317000F51F482F492BB1F784E190E00E9402200F
:10318000A8953B9AE4EFF1E086E891E00197439A35
:103190000E94F51F43980E94F51F482F492BB1F755
:1031A00084E190E00E9402203B9AE8E5F2E080E9A9
:1031B00091E00197439A0E94F51F43980E94F51FE2
:1031C000482F492BB1F7A8950895A8953B9AECE2B2
:1031D000F1E084E893E00197439A0E94F51F439839
:1031E0000E94F51F482F492BB1F7E1E0F0E00E9463
:1031F0003B1FA8953B9AECE2F1E084E893E001974D
:10320000439A0E94F51F43980E94F51F482F492BAF
:10321000B1F7E1E0F0E00E943B1FA8953B9AECE299
:10322000F1E084E893E00197439A0E94F51F4398E8
:103230000E94F51F482F492BB1F7E1E0F0E00E9412
:103240003B1FA8953B9AECE2F1E084E893E00197FC
:10325000439A0E94F51F43980E94F51F482F492B5F
:10326000B1F7E1E0F0E00E943B1FA8953B9AECE249
:10327000F1E084E893E00197439A0E94F51F439898
:103280000E94F51F482F492BB1F7E1E0F0E00E94C2
:103290003B1FA8950895A8950E941D2110EE0E943D
:1032A000312111E00E9431210E9429210E941D211B
:1032B00010914B010E94312110914C010E9431214B
:1032C00010914D010E9431210E9429210E941D214F
:1032D00010EE0E94312112E00E9431210E9429212A
:1032E0000E941D2110914B010E94312110914C012F
:1032F0000E94312110914D010E9431210E9429210B
:103300000E941D2110EE0E94312114E00E94312103
:103310000E9429210E941D2110914B010E94312100
:1033200010914C010E94312110914D010E943121D8
:103330000E9429210E941D2110EE0E94312118E0D7
:103340000E9431210E9429210E941D2110914B01D0
:103350000E94312110914C010E94312110914D01A8
:103360000E9431210E9429210E941D2110EE0E94FD
:10337000312110E10E9431210E9429210E941D214A
:1033800010914B010E94312110914C010E9431217A
:1033900010914D010E9431210E9429210E941D217E
:1033A00010EE0E94312110E20E9431210E94292159
:1033B0000E941D2110914B010E94312110914C015E
:1033C0000E94312110914D010E9431210E9429213A
:1033D0000E941D2110EE0E94312110E40E94312133
:1033E0000E9429210E941D2110914B010E94312130
:1033F00010914C010E94312110914D010E94312108
:103400000E9429210E941D2110EE0E94312110E806
:103410000E9431210E9429210E941D2110914B01FF
:103420000E94312110914C010E94312110914D01D7
:103430000E9431210E942921A8950895A895EAEFBC
:10344000FBE40E94201F0E941D211EE40E943121E6
:1034500062FA16F00C942E1A0E94E5180E94292197
:103460000E94291F80E080934A0100914A010730A1
:1034700018F011F00C948E1AA895EAE0FCE40E9472
:10348000201FEAE4F1E0ACE5B7E00E9450220E9480
:10349000181F0E941D2110EE0E94312110914A0137
:1034A0000E9431210E9429210E941D2111EE0E94BB
:1034B00031210E944E21A6E2B1E01C930E942921F5
:1034C0000E94291F40914A0100912601041711F41E
:1034D0000C94861AECE1FCE40E94201FE6E2F1E085
:1034E000ACE5B7E00E9450220E94181FE6E2FCE41F
:1034F0000E94201FEAE4F1E0ACE5B7E00E94502210
:103500000E94181FE1E0F0E00E943B1FAAE4B1E036
:103510008C918F5F8C9310F40C94351AA895E8E287
:10352000FCE40E94201F0E941D2110EE0E94312108
:1035300011E00E9431210E9429210E94201B0E943B
:10354000291FECE3FCE40E94201F0E941D2110EEC5
:103550000E94312112E00E9431210E9429210E9403
:10356000201B0E94291FE0E5FCE40E94201F0E940E
:103570001D2110EE0E94312114E00E9431210E9491
:1035800029210E94201B0E94291FE4E6FCE40E94DE
:10359000201F0E941D2110EE0E94312118E00E9480
:1035A00031210E9429210E94201B0E94291FE8E747
:1035B000FCE40E94201F0E941D2110EE0E94312178
:1035C00010E10E9431210E9429210E94201B0E94AB
:1035D000291FECE8FCE40E94201F0E941D2110EE30
:1035E0000E94312110E20E9431210E9429210E9473
:1035F000201B0E94291FE0EAFCE40E94201F0E9479
:103600001D2110EE0E94312110E40E9431210E9400
:1036100029210E94201B0E94291FE4EBFCE40E9448
:10362000201F0E941D2110EE0E94312110E80E94EF
:1036300031210E9429210E94201B0E94291F0895E8
:10364000A8950E941D2114EB0E94312110E00E94D8
:1036500031210E941D2115EB0E9431210E944E2133
:10366000A6E2B1E01C930E9429210E94291FA6E234
:10367000B1E08C91807E8C9395E0A6E2B1E00E944F
:10368000AA21A89500912601073011F00C94501B37
:10369000AEE4B1E0E8ECFCE40E9480210C948A1BCB
:1036A00000912601063011F00C945E1BAEE4B1E0EF
:1036B000E2EDFCE40E9480210C948A1B009126011B
:1036C000043011F00C946C1BAEE4B1E0ECEDFCE4C2
:1036D0000E9480210C948A1B00912601033011F076
:1036E0000C947A1BAEE4B1E0E4EEFCE40E9480218D
:1036F0000C948A1BECEEFCE40E94201FE6E2F1E051
:10370000ACE5B7E00E9450220E94181F84EF91E0C0
:103710000E940220A8950895A6E0B1E0E6EFFBE440
:103720000E94F62211F00C94571CAAE0B1E0E2EFDF
:10373000FCE40E94F62211F00C94F31B0E94A31CDF
:1037400084EB80934B0180E280934C018091620175
:1037500080934D010E944B190E94F11D84EB8093D0
:103760004B0187E180934C018091610180934D0171
:103770000E944B1984EB80934B0181E080934C01B4
:1037800087E080934D010E944B1984EB80934B019D
:103790008CE080934C0181E080934D010E944B1995
:1037A00084EB80934B018AE180934C0186EB8093FC
:1037B0004D010E944B1984EB80934B0183E0809371
:1037C0004C0180E880934D010E944B1984EB80935B
:1037D0004B0181E080934C0183E080934D010E9476
:1037E0004B190C94341C0E94591D84EB80934B019F
:1037F00086E180934C018091600180934D010E948D
:10380000291F0E944B190E94F11D84EB80934B01EC
:1038100087E180934C018091610180934D010E946A
:103820004B190E94291F84EB80934B0183E0809306
:103830004C0180E880934D010E944B1984EB8093EA
:103840004B0181E080934C0182E080934D010E9406
:103850004B1984EB80934B018AE180934C0186EBFA
:1038600080934D010E944B1984EB80934B0183E0C0
:1038700080934C0180E880934D010E944B1984EBAA
:1038800080934B0181E080934C0187E080934D0150
:103890000E944B1984EB80934B018CE080934C0188
:1038A00081E080934D010E944B190C94971C0E945B
:1038B000291FE8EFFCE40E94201F84EB80934B015A
:1038C0008AE180934C0180E080934D010E944B1966
:1038D0000E94D51D84EB80934B0187E180934C01BE
:1038E0008091610180934D010E944B1984EB80937C
:1038F0004B0181E080934C0187E080934D010E9451
:103900004B1984EB80934B018CE080934C0181E058
:1039100080934D010E944B1984EB80934B0181E011
:1039200080934C0182E080934D010E944B1984EBFF
:1039300080934B0181E080934C0182E080934D01A4
:103940000E944B190895E2E1FBE40E940425EAE598
:10395000F1E0D190E080FF2400270E94B2230E9472
:103960005B24EDE0F0E0A3E6B1E00E949D22E3E6F7
:10397000F1E00E944A23E6E1FBE40E94F7240E9462
:103980000224EDE0F0E0A3E6B1E00E949D22E3E630
:10399000F1E00E941425EDE0F0E0A3E6B1E00E9422
:1039A0009D22E3E6F1E00E944523EAE1FBE40E9468
:1039B00004250E942C2318F011F00C94E11C0C94A7
:1039C000E71CA3E6B1E0EAE1FBE40E94BA21E3E6EA
:1039D000F1E00E945A23A2E6B1E0DC920895EEE104
:1039E000FBE40E940425E1E1F1E00E9445230E94EE
:1039F0000224EDE0F0E0A7E6B1E00E949D22E7E6B8
:103A0000F1E00E944A23E7E6F1E00E9445230E948C
:103A10005B24EDE0F0E0A7E6B1E00E949D22E2E247
:103A2000FBE40E940425EAE5F1E0D190E080FF2468
:103A300000270E94B2230E945B24EDE0F0E0A3E6A1
:103A4000B1E00E949D22E3E6F1E00E944A23E6E114
:103A5000FBE40E94F7240E949A24EDE0F0E0A3E644
:103A6000B1E00E949D22E3E6F1E00E944A23E7E6EE
:103A7000F1E00E9445230E940224EDE0F0E0A7E679
:103A8000B1E00E949D22E7E6F1E00E946125EDE0B1
:103A9000F0E0A3E6B1E00E949D22E3E6F1E00E949F
:103AA0001425EDE0F0E00E945A23A1E6B1E0DC929B
:103AB0000895E4E7F1E0D190E080FF2400270E9420
:103AC000B2230E945423E6E2FBE40E94F7240E9402
:103AD0005B24EDE0F0E0A3E6B1E00E949D22EAE283
:103AE000FBE40E940425E3E6F1E00E9445230E94E6
:103AF000A924EDE0F0E0A3E6B1E00E949D22EEE211
:103B0000FBE40E940425E3E6F1E00E9445230E94C5
:103B10005B24EDE0F0E0A3E6B1E00E949D22E3E645
:103B2000F1E00E944A23E6E1FBE40E94F7240E94B0
:103B30009A24EDE0F0E0A3E6B1E00E949D22E3E6E6
:103B4000F1E00E946125EDE0F0E0A3E6B1E00E9423
:103B50009D22E3E6F1E00E944A23E1E1F1E00E94C8
:103B600045230E945B24EDE0F0E0A3E6B1E00E9473
:103B70009D22E2E3FBE40E940425E3E6F1E00E94DB
:103B800045230E940224EDE0F0E0A3E6B1E00E94AC
:103B90009D22E3E6F1E00E941425EDE0F0E00E94B2
:103BA0005A23A0E6B1E0DC920895E6E3FBE40E942C
:103BB0000425E1E1F1E00E9445230E940224EDE0AA
:103BC000F0E0A3E6B1E00E949D22E3E6F1E00E946E
:103BD0001425EDE0F0E00E945A23A1E6B1E0DC926A
:103BE0000895E2E2FBE40E940425EAE5F1E0D190C9
:103BF000E080FF2400270E94B2230E945B24EDE0B6
:103C0000F0E0A3E6B1E00E949D22EAE3FBE40E941B
:103C10000425E3E6F1E00E9445230E945B24EDE0E9
:103C2000F0E0A3E6B1E00E949D22E3E6F1E00E940D
:103C30004A23E6E1FBE40E94F7240E949A24EDE087
:103C4000F0E0A3E6B1E00E949D22E3E6F1E00E94ED
:103C50006125EDE0F0E0A3E6B1E00E949D22EEE1F7
:103C6000FBE40E940425E3E6F1E00E9445230E9464
:103C70005B24EDE0F0E0A3E6B1E00E949D22E3E6E4
:103C8000F1E00E944A23E1E1F1E00E9445230E9415
:103C90000224EDE0F0E0A3E6B1E00E949D22E3E61D
:103CA000F1E00E941425EDE0F0E00E945A23A1E625
:103CB000B1E0DC92089500911801013011F00C94EC
:103CC000691EA6E0B1E0E6EFFBE40E9480210C94BF
:103CD0006F1EA6E0B1E0E8EFFCE40E9480210091B5
:103CE0001901013011F00C947D1EAAE0B1E0E2EF61
:103CF000FCE40E9480210C94831EAAE0B1E0ECEF6A
:103D0000FCE40E94802108958E2E9F2E0895E82DB8
:103D1000F92D08950D911D912D913C910F5F1F4F2D
:103D20002F4F3F4F3C932E931E930E930895ED918A
:103D3000FC91EF5FFF4FFC93EE930895ED91FC91A2
:103D4000E150F040FC93EE9308958FEE80932801AC
:103D50008EEB809329018DEA80932A018EED80936A
:103D60002B010895A8E2B1E00E945A2181E098E178
:103D7000772701FD782705FD782706FD782737FD91
:103D80007827369527951795079570FD30689A9591
:103D900079F70E94642179916991599149910C9424
:103DA000A51F09D00E94762100FC10D0089503D0F1
:103DB0001ED001F8F9CF0024E89457FF02C009D0C3
:103DC000689400F80BD010F80124089502D009D0AF
:103DD0000895509540954F5F5F4F0895E89417FF01
:103DE0000895009510950F5F1F4F68940895352F23
:103DF000242FE894452B11F468940895512F402FF7
:103E00000027112780E1440F551F001F111F021BBF
:103E1000130B416018F4020F131F4E7F8A9599F718
:103E200008958F938D918823E9F711978F910895C5
:103E3000ACE5B7E08D91882311F04ED0FBCF08950B
:103E40000E94B221802D11F047D0FACF089580EC66
:103E500045C081E043D015D080E840C08FE72130D5
:103E600039F08FEB223021F08FE8233009F08FEC0E
:103E7000810F0C946E1F88EE93E0C4D03197D9F770
:103E8000089583E09927BEC080E03ED082E390E0B1
:103E90000E94022080E330D085E090E00E94022062
:103EA00080E32AD0EF93FF93ECE8F1E00E94F21F49
:103EB000FF91EF9180E320D080E21ED088E20ED007
:103EC00088E00CD081E00AD083E090E00E940220DC
:103ED00086E004D08CE002C091E001C090E0109137
:103EE0009601103009F098609F938F9303D08F91C3
:103EF0009F918295807F892B5F9306D0846004D048
:103F00008B7F02D05F9108958F938F930E941D2124
:103F1000109195010E9431211F910E9431210E9430
:103F20002921EF93FF93E4E2F0E00E94F21FFF915A
:103F3000EF918F91089500FC05D0089530D005D001
:103F400001F8F9CF37D03FD00895842F952FA62FB1
:103F5000B72FE894452B462B472B11F4689408950E
:103F6000402F512F622F732F00271127222733272D
:103F7000F0E2440F551F661F771F001F111F221FFD
:103F8000331F081B190B2A0B3B0B416028F4080F49
:103F9000191F2A1F3B1F4E7FFA9559F708950024D9
:103FA000E89477FF02C006D0689400F809D010F8B2
:103FB0000124089512D04F5F5F4F6F4F7F4F0895D8
:103FC000E89437FF089500951095209530950F5F80
:103FD0001F4F2F4F3F4F689408954095509560951F
:103FE000709508953197F1F70895AE2FBF2F11976F
:103FF0004A2F4B2BE1F70895689462F80895E894EE
:1040000062F80895EF93FF93EE27E82BE92B31F048
:10401000E0EAFFE03197F1F70197D1F7FF91EF91D7
:1040200008958DE207FD8D938F2D881F802F881FA7
:104030008F57082F6894F7F8802F87FF15C0809559
:104040008395082F80E38D938EE28D93802F81528C
:1040500028F080E38D9399279C93089544270A952F
:10406000802F09F196D01FC0805230F09EE49D93BE
:1040700081E48D939D93EFCF4427DF92EF92FF92DF
:104080000F938FE1801B11F0082F83D089D09EE21F
:104090009D930F91FF90EF90DF904427039500329E
:1040A00009F4D7CF2BD03F93E2E3F1E438E12F2D91
:1040B0001E2D0D2DFF24EE24DD244427000F111F9B
:1040C000221FA8F42F923F920E94B221102C0E942E
:1040D000B221202C0E94B221302C0E94B2213197B3
:1040E000410DD21CE31CF01C3F902F9001C0339671
:1040F00031963A9519F73F9107D0AFCFDD0CEE1C02
:10410000FF1C0A95D9F70895002719E058D08F931E
:10411000802B11F0039501C08F911A95B9F7802F6C
:10412000882309F496CF8F91805D8D930A95D9F7F6
:1041300092CF0065CD1D80B2E60E40597307A0AC4A
:10414000B90350D6DC01286BEE0094357700CA9A8B
:104150003B0065CD1D00B2E60E0059730700ACB9F7
:104160000300D6DC01006BEE0000357700009A3BBF
:104170000000CD1D0000E60E000073070000B9032B
:104180000000DC010000EE000000770000003B00B2
:104190000000F694E794D79447950A95D1F70895CF
:1041A00000270DD08F9303958F2D8E298D29842B79
:1041B000C1F78F91805D8D930A95D9F74CCF1F93EE
:1041C0000F93002710E2440FDD1CEE1CFF1C001FA4
:1041D000802F9AE0890B10F0082F43951A9599F7D4
:1041E000802F0F911F9108952093AD023093AE025E
:1041F0004093AF025093B00208952091AD023091E8
:10420000AE024091AF025091B00208953C983D98A3
:10421000449A459A089568944093BC008F939F9365
:1042200088279927019629F04091BC0047FFFACFD3
:10423000E8949F918F9162F8089544EAECDF4091F1
:10424000B900487F483019F0403109F0689462F8AD
:10425000089544E94093BC004091BC0044FDFCCF6C
:1042600008951093BB0044E8D6DF8F939F9388276F
:104270009927019671F04091B900487F483FC9F3F2
:10428000E894483139F0483229F0403419F040358B
:1042900009F068949F918F9162F8089544E801C0F5
:1042A00044ECB9DF1091BB004091B900487F483F12
:1042B000D9F308950D911D912D913C91089501918F
:1042C00011912191308108953C932E931E930E936A
:1042D0000895481A590A0895481A8827580A0895CF
:1042E00099275A924A92480E591E08950F92B80182
:1042F000469F8001479F100D569F100D0F90089507
:104300000E94B2210D920020D9F7089570917A0091
:10431000706470937A0000907A0006FCFCCF709174
:104320007A00706470937A0000907A0006FCFCCFEB
:1043300080917800909179000895903051F0002498
:104340000D911C91000F111F001D9A95D9F71C9318
:104350000E930895903029F08C9186959A95E9F7FF
:104360008C930895C89531960020089591E005C07A
:1043700092E003C094E001C098E0F4DF0D929A95BA
:10438000E1F70895E80FF91FF1CF0196019721F0A9
:104390000E94B221E9F7FACF089591E0882321F035
:1043A0008894991F8A95E9F7892F90950895883008
:1043B00018F011968850FBCF089599278D91939509
:1043C0008823E1F7939511968C9311978E919A9586
:1043D000D1F70895EA2FFB2F00244C918D9103947F
:1043E0008E32E1F711248D9113948823E1F71A940A
:1043F000101640F41197202F2119239580E38D93F7
:104400002A95E9F7113039F59927AE2FBF2FA00D66
:10441000B91FA00FB91F8C919C93853308F421C05C
:1044200031E08E918E32E9F38D3241F0830F8A3381
:1044300019F480E331E001C033278C93AE1789F77C
:10444000332341F0AE2FBF2FB8DF81E34D3209F4A3
:104450003196808308958827E00DF81FE00FF81F3C
:1044600080830895000F111F221F331F08950095A8
:104470001095209530950F5F1F4F2F4F3F4F089598
:10448000019110810FC00E945F210EC00E945F2128
:1044900010C00191108117FF05C03FEF2FEF04C03E
:1044A000008111272227332737FF03C0E0DF8DE289
:1044B0008D93CF92DF92EF92AA24BB24CC24DD24EB
:1044C000EE2440E2EAE0FF2755E093E38081890F84
:1044D00087FD9F7083FD907F891B81935A95A9F773
:1044E000C1DFAA1CBB1CCC1CDD1CEE1C4A9551F77D
:1044F000E894EFE0FF2782910BD0EB30E0F71EF05D
:1045000068948A2D09D04D93EF90DF90CF90089555
:10451000982F829501D0892F8F70805D26F080338F
:1045200009F4089568948D93089588278D930895CC
:1045300081918D938823E1F7089594E081918D9383
:104540009A95E1F7089570E2803021F07D938A9585
:10455000E9F78C930895002331F081918D930A95AA
:104560008823C9F70895E1CFF999FECFE1BDF2BDE7
:104570003196089591E001C092E07B3751F47FB706
:10458000F894F2DF8D9180BDFA9AF99A9A95C9F75D
:104590007FBF77270895E8DF8D917B3729F480BDB1
:1045A000FA9AF99A8823B9F77727089591E001C01C
:1045B00092E0DADFF89A80B58D939A95D1F7089555
:1045C000FF93881BF9E0001FFA9511F4FF910895FD
:1045D000881F841B18F4840F8894F5CF0894F3CFB8
:1045E0008FEF83959D919923E1F70895689401C019
:1045F000E894AF93BF938D9116F0919103C00E9400
:10460000B221902D891718F011F48823A1F7BF91DA
:10461000AF910895B7FE089590E8B91611F4D0FE51
:1046200008959FEFD91AE90AF90A09F40395089544
:1046300088E00FB6F8945A924A92E42DF52DA42DF5
:10464000B52D480E8827581E0FBE08950FB6F89452
:10465000499059900FBE08950F928F939F93D21651
:10466000E306F4060FB680E890E8802795270FBE92
:10467000890739F00FB6892B87FD02C081E0082633
:104680000FBE9F918F910F900895D190E190F1907E
:104690000191089521913191419151910895DD92B7
:1046A000ED92FD920C930895502F2D2D3E2D4F2D00
:1046B000612F0895EADF992711278F2D880F80E851
:1046C000F82A802F881F08F41FEF41F08F57082F1A
:1046D00007FD04C0003240F08FEF01C08827982FFB
:1046E000D82EE82EF82E09C08FE1801B082FF694F3
:1046F000E794D79497950A95D1F7112351F09095A7
:10470000D094E094F09481E0980F8827D81EE81E9A
:10471000F81E0F2DFE2CED2CD92E0895D094E09488
:10472000F09491E0D90E9927E91EF91E109508958D
:10473000652F90E8440F551F5927990F47956078CA
:10474000102F90E8FF0C001F0927990FF79410789D
:1047500000380895FF0C90E89027110F9795F79473
:10476000092F08951127BD2CDE2CEF2CF02E0EE121
:10477000FF2039F4FE2CED2CDB2CBB240850C2F7B3
:1047800075C032F00A95BB0CDD1CEE1CFF1CF9CF86
:1047900041DFE0CF102FBD2CDE2CEF2CF02E1123AB
:1047A0004AF4B094D094E094F0949FEFB91AD90AE7
:1047B000E90AF90A0EE1FF2039F4FE2CED2CDB2C7E
:1047C000BB240850C2F752C032F00A95BB0CDD1C66
:1047D000EE1CFF1CF9CF1EDFBDCF2DEC3CEC4CECEA
:1047E0005DE366270FC051DF5FDFDD24EE2490E834
:1047F000F92E0FE307C04EDF05C02227332740E222
:1048000051E46627552351F1002381F191DF71F1C5
:104810001627005850580894050B18F407FD03C0DC
:1048200025C007FD23C0469537952795F694E79454
:10483000D79425D0FF202AF0DD0CEE1CFF1C015080
:1048400073F09D2D969548F0DD203AF4EE202AF481
:1048500091E0D90E9927E91EF91E7CCF07C09FE78A
:10486000092FF92A9FEFD92EE92E0895DD24EE2491
:10487000FF240027112708950FE79FEFF2CF9F92A3
:104880009924AA24BB2488E1D216E306F40628F072
:10489000D21AE30AF40A089401C08894991CAA1C4D
:1048A000BB1CDD0CEE1CFF1C8A9571F7D92CEA2C81
:1048B000FB2C9F9008953CDFD9F05038C9F01627A3
:1048C0000058952F90580894091F12F418F40EC040
:1048D00008F00EC00FD0FF202AF0BB0CDD1CEE1C30
:1048E000FF1C02C0039513F095DE34CF0C942F24E7
:1048F0000C9436249F92FF92EF928D2DFF24EE248C
:10490000DD24BB2493E0849F1001829FB00CD11C56
:10491000E21CF31C839FD00CE11C2224F21C9A950C
:1049200031F0BD2CDE2CEF2CFF248F91ECCF9F902B
:104930000895B0DEFDDE503829F090E869270CC0FC
:104940000AF045D007CF5FE322273327442701C071
:10495000A1DEEEDE5038B1F3003899F3902F951BAD
:104960008BF312F434D0FACF983118F02227332782
:104970004427983028F0232F342F44279850F9CF1C
:10498000992329F04695379527959A95D9F7912F30
:10499000962742F014D0B0F6F794E794D7940F5FBF
:1049A0008BF65DCF10D051F008F4B8DEFF2052F244
:1049B000DD0CEE1CFF1C0150CBF751CF57CFD20EB0
:1049C000E31EF41E0895D21AE30AF40A0895DF9252
:1049D000EF92FF920F931F93D22EE32EF42E052F0A
:1049E000162F6F915F914F913F912F9108950E94E3
:1049F000B221D02C0E94B221E02C0E94B221F02CD6
:104A00000E94B221002D08950E94B221202D0E9403
:104A1000B221302D0E94B221402D0E94B221502D92
:104A2000089533DE80E003C030DE802F8078882355
:104A300021F0DF92EF92FF920F938F930E949823C1
:104A4000802F839512F412DF1BC080958A95885EB3
:104A50000AF415C088501AF40CD0D92210C0DD24F5
:104A600088501AF406D0E9220AC0EE2402D0F922B6
:104A700006C09FEF8770990F8A95EAF708956ADE5E
:104A80008F918823D9F35F914F913F912F910F938D
:104A9000E3DD0F9199F390F30ED050685ACFF5DD16
:104AA000802FFF0C001F901728F4091B881F079503
:104AB000F7940895DBCE5FE340E83327222708957B
:104AC000D5CEE3DD0023E2F3D9F388E0B2DDE7DD04
:104AD0001196FF0C001F8FE7080F0795F7940695B6
:104AE000F79483E08F93E0DDDADD1397CEDD8ADE85
:104AF000D1DD38972EDF91E0D3DF8F918A9511F0C9
:104B00008F93F1CFA3CD0000C84200000000000049
:104B1000C03F6B8CCE380000803F0000FE4248A7AB
:104B2000AE3C17B7513A0000804000009643BD37B5
:104B300086356397A83C83DDB03C6666E63F4F66EA
:104B400066004F6E00002000302E392E370046726E
:104B50006565646F6D576176655044200000566549
:104B600072002A0054726561746D656E742053740E
:104B70006172740045786563757465640000205443
:104B8000726561746D656E7420446F6E65202000DF
:104B9000202057616974203220686F75727300009D
:104BA0002046726565646F6D5761766550440000FC
:104BB0002056657273696F6E200044656661756C7E
:104BC0007473204C6F61646564004D696E75746523
:104BD000733A20003137204D696E75746573207407
:104BE0006F20676F0000202046726565646F6D5707
:104BF0006176655044004C52410054657374696E8F
:104C00006720504346383537340054657374696EF5
:104C10006720544341393534384100004572726F82
:104C20007220312E00002E0054657374696E672067
:104C3000445256323630354C20310000546573747E
:104C4000696E6720445256323630354C20320000AF
:104C500054657374696E6720445256323630354C51
:104C60002033000054657374696E672044525632D5
:104C70003630354C2034000054657374696E6720FB
:104C8000445256323630354C20350000546573742A
:104C9000696E6720445256323630354C203600005B
:104CA00054657374696E6720445256323630354C01
:104CB0002037000054657374696E67204452563281
:104CC0003630354C20380000445256323630354CA0
:104CD0000000445256323630344C000044525632B2
:104CE0003630340044525632363035004572726FD9
:104CF00072004F50454E000045524D00434C4F53FB
:044D00004544000026
:00000001FF
